{
  "contractName": "Swap",
  "abi": [
    {
      "inputs": [],
      "stateMutability": "nonpayable",
      "type": "constructor"
    },
    {
      "anonymous": false,
      "inputs": [
        {
          "indexed": false,
          "internalType": "address",
          "name": "contractAddressApproved",
          "type": "address"
        }
      ],
      "name": "LogNFTApproval",
      "type": "event"
    },
    {
      "anonymous": false,
      "inputs": [
        {
          "indexed": false,
          "internalType": "address",
          "name": "contractAddressRemoved",
          "type": "address"
        }
      ],
      "name": "LogNFTRemoval",
      "type": "event"
    },
    {
      "anonymous": false,
      "inputs": [
        {
          "indexed": false,
          "internalType": "uint256",
          "name": "offerAcceptedId",
          "type": "uint256"
        }
      ],
      "name": "LogOfferAccepted",
      "type": "event"
    },
    {
      "anonymous": false,
      "inputs": [
        {
          "indexed": false,
          "internalType": "uint256",
          "name": "offerAddedId",
          "type": "uint256"
        }
      ],
      "name": "LogOfferAdded",
      "type": "event"
    },
    {
      "inputs": [
        {
          "internalType": "address",
          "name": "",
          "type": "address"
        }
      ],
      "name": "approvedERC721",
      "outputs": [
        {
          "internalType": "bool",
          "name": "",
          "type": "bool"
        }
      ],
      "stateMutability": "view",
      "type": "function"
    },
    {
      "inputs": [],
      "name": "offerCount",
      "outputs": [
        {
          "internalType": "uint256",
          "name": "",
          "type": "uint256"
        }
      ],
      "stateMutability": "view",
      "type": "function"
    },
    {
      "inputs": [
        {
          "internalType": "address",
          "name": "",
          "type": "address"
        }
      ],
      "name": "offerCountByAddress",
      "outputs": [
        {
          "internalType": "uint256",
          "name": "",
          "type": "uint256"
        }
      ],
      "stateMutability": "view",
      "type": "function"
    },
    {
      "inputs": [
        {
          "internalType": "uint256",
          "name": "",
          "type": "uint256"
        }
      ],
      "name": "offers",
      "outputs": [
        {
          "internalType": "address",
          "name": "offerer",
          "type": "address"
        },
        {
          "internalType": "uint256",
          "name": "offerLength",
          "type": "uint256"
        },
        {
          "internalType": "uint256",
          "name": "askLength",
          "type": "uint256"
        },
        {
          "internalType": "uint256",
          "name": "offerVal",
          "type": "uint256"
        },
        {
          "internalType": "uint256",
          "name": "askVal",
          "type": "uint256"
        },
        {
          "internalType": "enum Swap.State",
          "name": "state",
          "type": "uint8"
        }
      ],
      "stateMutability": "view",
      "type": "function"
    },
    {
      "inputs": [
        {
          "internalType": "address",
          "name": "",
          "type": "address"
        },
        {
          "internalType": "uint256",
          "name": "",
          "type": "uint256"
        }
      ],
      "name": "offersByAddress",
      "outputs": [
        {
          "internalType": "uint256",
          "name": "",
          "type": "uint256"
        }
      ],
      "stateMutability": "view",
      "type": "function"
    },
    {
      "inputs": [
        {
          "internalType": "address",
          "name": "",
          "type": "address"
        },
        {
          "internalType": "uint256",
          "name": "",
          "type": "uint256"
        }
      ],
      "name": "offersCreatedByAddress",
      "outputs": [
        {
          "internalType": "uint256",
          "name": "",
          "type": "uint256"
        }
      ],
      "stateMutability": "view",
      "type": "function"
    },
    {
      "inputs": [
        {
          "internalType": "address",
          "name": "",
          "type": "address"
        }
      ],
      "name": "offersCreatedCountByAddress",
      "outputs": [
        {
          "internalType": "uint256",
          "name": "",
          "type": "uint256"
        }
      ],
      "stateMutability": "view",
      "type": "function"
    },
    {
      "inputs": [],
      "name": "owner",
      "outputs": [
        {
          "internalType": "address",
          "name": "",
          "type": "address"
        }
      ],
      "stateMutability": "view",
      "type": "function"
    },
    {
      "inputs": [
        {
          "internalType": "address",
          "name": "_NFTContract",
          "type": "address"
        }
      ],
      "name": "approveNFT",
      "outputs": [],
      "stateMutability": "nonpayable",
      "type": "function"
    },
    {
      "inputs": [
        {
          "internalType": "address",
          "name": "_NFTContract",
          "type": "address"
        }
      ],
      "name": "removeNFT",
      "outputs": [],
      "stateMutability": "nonpayable",
      "type": "function"
    },
    {
      "inputs": [
        {
          "internalType": "uint256[]",
          "name": "_offer",
          "type": "uint256[]"
        },
        {
          "internalType": "address[]",
          "name": "_offerContract",
          "type": "address[]"
        },
        {
          "internalType": "uint256[]",
          "name": "_ask",
          "type": "uint256[]"
        },
        {
          "internalType": "address[]",
          "name": "_askContract",
          "type": "address[]"
        },
        {
          "internalType": "uint256",
          "name": "_offerVal",
          "type": "uint256"
        },
        {
          "internalType": "uint256",
          "name": "_askVal",
          "type": "uint256"
        },
        {
          "internalType": "address",
          "name": "_targetAddress",
          "type": "address"
        }
      ],
      "name": "addOffer",
      "outputs": [
        {
          "internalType": "bool",
          "name": "",
          "type": "bool"
        }
      ],
      "stateMutability": "nonpayable",
      "type": "function"
    },
    {
      "inputs": [
        {
          "internalType": "uint256",
          "name": "_offerId",
          "type": "uint256"
        }
      ],
      "name": "acceptOffer",
      "outputs": [
        {
          "internalType": "bool",
          "name": "",
          "type": "bool"
        }
      ],
      "stateMutability": "nonpayable",
      "type": "function"
    },
    {
      "inputs": [
        {
          "internalType": "uint256",
          "name": "_offerId",
          "type": "uint256"
        }
      ],
      "name": "cancelOffer",
      "outputs": [
        {
          "internalType": "bool",
          "name": "",
          "type": "bool"
        }
      ],
      "stateMutability": "nonpayable",
      "type": "function"
    },
    {
      "inputs": [
        {
          "internalType": "uint256",
          "name": "_offerId",
          "type": "uint256"
        },
        {
          "internalType": "uint256",
          "name": "_index",
          "type": "uint256"
        }
      ],
      "name": "getOfferFromOffer",
      "outputs": [
        {
          "internalType": "uint256",
          "name": "",
          "type": "uint256"
        }
      ],
      "stateMutability": "view",
      "type": "function"
    },
    {
      "inputs": [
        {
          "internalType": "uint256",
          "name": "_offerId",
          "type": "uint256"
        },
        {
          "internalType": "uint256",
          "name": "_index",
          "type": "uint256"
        }
      ],
      "name": "getOfferFromAsk",
      "outputs": [
        {
          "internalType": "uint256",
          "name": "",
          "type": "uint256"
        }
      ],
      "stateMutability": "view",
      "type": "function"
    },
    {
      "inputs": [
        {
          "internalType": "uint256",
          "name": "_offerId",
          "type": "uint256"
        }
      ],
      "name": "getOfferLengthFromOffer",
      "outputs": [
        {
          "internalType": "uint256",
          "name": "",
          "type": "uint256"
        }
      ],
      "stateMutability": "view",
      "type": "function"
    },
    {
      "inputs": [
        {
          "internalType": "uint256",
          "name": "_offerId",
          "type": "uint256"
        }
      ],
      "name": "getOfferLengthFromAsk",
      "outputs": [
        {
          "internalType": "uint256",
          "name": "",
          "type": "uint256"
        }
      ],
      "stateMutability": "view",
      "type": "function"
    },
    {
      "inputs": [
        {
          "internalType": "uint256",
          "name": "_offerId",
          "type": "uint256"
        }
      ],
      "name": "getOfferState",
      "outputs": [
        {
          "internalType": "bool",
          "name": "",
          "type": "bool"
        }
      ],
      "stateMutability": "view",
      "type": "function"
    }
  ],
  "bytecode": "0x608060405234801561001057600080fd5b50336000806101000a81548173ffffffffffffffffffffffffffffffffffffffff021916908373ffffffffffffffffffffffffffffffffffffffff1602179055506000600181905550612e30806100686000396000f3fe608060405234801561001057600080fd5b50600436106101165760003560e01c80636656d736116100a2578063ba1c407211610071578063ba1c40721461054a578063c49e5b5e14610596578063c815729d146105dc578063ee9ee61f14610622578063ef706adf146108e257610116565b80636656d736146103ad5780638a72ea6a146104095780638da5cb5b146104a8578063986a2588146104f257610116565b80632240ba77116100e95780632240ba771461020357806323540450146102655780633505792e146102a75780633ee037e7146102f3578063517a72cf1461035557610116565b80630ed642d01461011b5780631115c24d1461015f57806311e9a95e1461017d57806317cc54f7146101c1575b600080fd5b61015d6004803603602081101561013157600080fd5b81019080803573ffffffffffffffffffffffffffffffffffffffff169060200190929190505050610928565b005b610167610a41565b6040518082815260200191505060405180910390f35b6101bf6004803603602081101561019357600080fd5b81019080803573ffffffffffffffffffffffffffffffffffffffff169060200190929190505050610a47565b005b6101ed600480360360208110156101d757600080fd5b8101908080359060200190929190505050610b60565b6040518082815260200191505060405180910390f35b61024f6004803603604081101561021957600080fd5b81019080803573ffffffffffffffffffffffffffffffffffffffff16906020019092919080359060200190929190505050610e0f565b6040518082815260200191505060405180910390f35b6102916004803603602081101561027b57600080fd5b8101908080359060200190929190505050610e3d565b6040518082815260200191505060405180910390f35b6102dd600480360360408110156102bd57600080fd5b8101908080359060200190929190803590602001909291905050506110ec565b6040518082815260200191505060405180910390f35b61033f6004803603604081101561030957600080fd5b81019080803573ffffffffffffffffffffffffffffffffffffffff169060200190929190803590602001909291905050506113af565b6040518082815260200191505060405180910390f35b6103976004803603602081101561036b57600080fd5b81019080803573ffffffffffffffffffffffffffffffffffffffff1690602001909291905050506113dd565b6040518082815260200191505060405180910390f35b6103ef600480360360208110156103c357600080fd5b81019080803573ffffffffffffffffffffffffffffffffffffffff1690602001909291905050506113f5565b604051808215151515815260200191505060405180910390f35b6104356004803603602081101561041f57600080fd5b8101908080359060200190929190505050611415565b604051808773ffffffffffffffffffffffffffffffffffffffff1673ffffffffffffffffffffffffffffffffffffffff16815260200186815260200185815260200184815260200183815260200182600181111561048f57fe5b60ff168152602001965050505050505060405180910390f35b6104b061147e565b604051808273ffffffffffffffffffffffffffffffffffffffff1673ffffffffffffffffffffffffffffffffffffffff16815260200191505060405180910390f35b6105346004803603602081101561050857600080fd5b81019080803573ffffffffffffffffffffffffffffffffffffffff1690602001909291905050506114a3565b6040518082815260200191505060405180910390f35b6105806004803603604081101561056057600080fd5b8101908080359060200190929190803590602001909291905050506114bb565b6040518082815260200191505060405180910390f35b6105c2600480360360208110156105ac57600080fd5b810190808035906020019092919050505061177e565b604051808215151515815260200191505060405180910390f35b610608600480360360208110156105f257600080fd5b8101908080359060200190929190505050611a59565b604051808215151515815260200191505060405180910390f35b6108c8600480360360e081101561063857600080fd5b810190808035906020019064010000000081111561065557600080fd5b82018360208201111561066757600080fd5b8035906020019184602083028401116401000000008311171561068957600080fd5b919080806020026020016040519081016040528093929190818152602001838360200280828437600081840152601f19601f820116905080830192505050505050509192919290803590602001906401000000008111156106e957600080fd5b8201836020820111156106fb57600080fd5b8035906020019184602083028401116401000000008311171561071d57600080fd5b919080806020026020016040519081016040528093929190818152602001838360200280828437600081840152601f19601f8201169050808301925050505050505091929192908035906020019064010000000081111561077d57600080fd5b82018360208201111561078f57600080fd5b803590602001918460208302840111640100000000831117156107b157600080fd5b919080806020026020016040519081016040528093929190818152602001838360200280828437600081840152601f19601f8201169050808301925050505050505091929192908035906020019064010000000081111561081157600080fd5b82018360208201111561082357600080fd5b8035906020019184602083028401116401000000008311171561084557600080fd5b919080806020026020016040519081016040528093929190818152602001838360200280828437600081840152601f19601f8201169050808301925050505050505091929192908035906020019092919080359060200190929190803573ffffffffffffffffffffffffffffffffffffffff169060200190929190505050612228565b604051808215151515815260200191505060405180910390f35b61090e600480360360208110156108f857600080fd5b81019080803590602001909291905050506129bb565b604051808215151515815260200191505060405180910390f35b336000809054906101000a900473ffffffffffffffffffffffffffffffffffffffff1673ffffffffffffffffffffffffffffffffffffffff168173ffffffffffffffffffffffffffffffffffffffff161461098257600080fd5b7febfe7b89bc8879c540005795f5110bc5f731b2c00294c47b1247f41bcb1bd42782604051808273ffffffffffffffffffffffffffffffffffffffff1673ffffffffffffffffffffffffffffffffffffffff16815260200191505060405180910390a16000600260008473ffffffffffffffffffffffffffffffffffffffff1673ffffffffffffffffffffffffffffffffffffffff16815260200190815260200160002060006101000a81548160ff0219169083151502179055505050565b60015481565b336000809054906101000a900473ffffffffffffffffffffffffffffffffffffffff1673ffffffffffffffffffffffffffffffffffffffff168173ffffffffffffffffffffffffffffffffffffffff1614610aa157600080fd5b7f51a951a433bd62c9bd3d80facce59480479f8fcf925c79971019eb97f628585082604051808273ffffffffffffffffffffffffffffffffffffffff1673ffffffffffffffffffffffffffffffffffffffff16815260200191505060405180910390a16001600260008473ffffffffffffffffffffffffffffffffffffffff1673ffffffffffffffffffffffffffffffffffffffff16815260200190815260200160002060006101000a81548160ff0219169083151502179055505050565b6000610b6a612ab4565b60036000848152602001908152602001600020604051806101400160405290816000820160009054906101000a900473ffffffffffffffffffffffffffffffffffffffff1673ffffffffffffffffffffffffffffffffffffffff1673ffffffffffffffffffffffffffffffffffffffff16815260200160018201805480602002602001604051908101604052809291908181526020018280548015610c2e57602002820191906000526020600020905b815481526020019060010190808311610c1a575b5050505050815260200160028201805480602002602001604051908101604052809291908181526020018280548015610c8657602002820191906000526020600020905b815481526020019060010190808311610c72575b5050505050815260200160038201805480602002602001604051908101604052809291908181526020018280548015610d1457602002820191906000526020600020905b8160009054906101000a900473ffffffffffffffffffffffffffffffffffffffff1673ffffffffffffffffffffffffffffffffffffffff1681526020019060010190808311610cca575b5050505050815260200160048201805480602002602001604051908101604052809291908181526020018280548015610da257602002820191906000526020600020905b8160009054906101000a900473ffffffffffffffffffffffffffffffffffffffff1673ffffffffffffffffffffffffffffffffffffffff1681526020019060010190808311610d58575b50505050508152602001600582015481526020016006820154815260200160078201548152602001600882015481526020016009820160009054906101000a900460ff166001811115610df157fe5b6001811115610dfc57fe5b8152505090508060a00151915050919050565b60066020528160005260406000208181548110610e2857fe5b90600052602060002001600091509150505481565b6000610e47612ab4565b60036000848152602001908152602001600020604051806101400160405290816000820160009054906101000a900473ffffffffffffffffffffffffffffffffffffffff1673ffffffffffffffffffffffffffffffffffffffff1673ffffffffffffffffffffffffffffffffffffffff16815260200160018201805480602002602001604051908101604052809291908181526020018280548015610f0b57602002820191906000526020600020905b815481526020019060010190808311610ef7575b5050505050815260200160028201805480602002602001604051908101604052809291908181526020018280548015610f6357602002820191906000526020600020905b815481526020019060010190808311610f4f575b5050505050815260200160038201805480602002602001604051908101604052809291908181526020018280548015610ff157602002820191906000526020600020905b8160009054906101000a900473ffffffffffffffffffffffffffffffffffffffff1673ffffffffffffffffffffffffffffffffffffffff1681526020019060010190808311610fa7575b505050505081526020016004820180548060200260200160405190810160405280929190818152602001828054801561107f57602002820191906000526020600020905b8160009054906101000a900473ffffffffffffffffffffffffffffffffffffffff1673ffffffffffffffffffffffffffffffffffffffff1681526020019060010190808311611035575b50505050508152602001600582015481526020016006820154815260200160078201548152602001600882015481526020016009820160009054906101000a900460ff1660018111156110ce57fe5b60018111156110d957fe5b8152505090508060c00151915050919050565b60006110f6612ab4565b60036000858152602001908152602001600020604051806101400160405290816000820160009054906101000a900473ffffffffffffffffffffffffffffffffffffffff1673ffffffffffffffffffffffffffffffffffffffff1673ffffffffffffffffffffffffffffffffffffffff168152602001600182018054806020026020016040519081016040528092919081815260200182805480156111ba57602002820191906000526020600020905b8154815260200190600101908083116111a6575b505050505081526020016002820180548060200260200160405190810160405280929190818152602001828054801561121257602002820191906000526020600020905b8154815260200190600101908083116111fe575b50505050508152602001600382018054806020026020016040519081016040528092919081815260200182805480156112a057602002820191906000526020600020905b8160009054906101000a900473ffffffffffffffffffffffffffffffffffffffff1673ffffffffffffffffffffffffffffffffffffffff1681526020019060010190808311611256575b505050505081526020016004820180548060200260200160405190810160405280929190818152602001828054801561132e57602002820191906000526020600020905b8160009054906101000a900473ffffffffffffffffffffffffffffffffffffffff1673ffffffffffffffffffffffffffffffffffffffff16815260200190600101908083116112e4575b50505050508152602001600582015481526020016006820154815260200160078201548152602001600882015481526020016009820160009054906101000a900460ff16600181111561137d57fe5b600181111561138857fe5b8152505090508060200151838151811061139e57fe5b602002602001015191505092915050565b600460205281600052604060002081815481106113c857fe5b90600052602060002001600091509150505481565b60076020528060005260406000206000915090505481565b60026020528060005260406000206000915054906101000a900460ff1681565b60036020528060005260406000206000915090508060000160009054906101000a900473ffffffffffffffffffffffffffffffffffffffff16908060050154908060060154908060070154908060080154908060090160009054906101000a900460ff16905086565b6000809054906101000a900473ffffffffffffffffffffffffffffffffffffffff1681565b60056020528060005260406000206000915090505481565b60006114c5612ab4565b60036000858152602001908152602001600020604051806101400160405290816000820160009054906101000a900473ffffffffffffffffffffffffffffffffffffffff1673ffffffffffffffffffffffffffffffffffffffff1673ffffffffffffffffffffffffffffffffffffffff1681526020016001820180548060200260200160405190810160405280929190818152602001828054801561158957602002820191906000526020600020905b815481526020019060010190808311611575575b50505050508152602001600282018054806020026020016040519081016040528092919081815260200182805480156115e157602002820191906000526020600020905b8154815260200190600101908083116115cd575b505050505081526020016003820180548060200260200160405190810160405280929190818152602001828054801561166f57602002820191906000526020600020905b8160009054906101000a900473ffffffffffffffffffffffffffffffffffffffff1673ffffffffffffffffffffffffffffffffffffffff1681526020019060010190808311611625575b50505050508152602001600482018054806020026020016040519081016040528092919081815260200182805480156116fd57602002820191906000526020600020905b8160009054906101000a900473ffffffffffffffffffffffffffffffffffffffff1673ffffffffffffffffffffffffffffffffffffffff16815260200190600101908083116116b3575b50505050508152602001600582015481526020016006820154815260200160078201548152602001600882015481526020016009820160009054906101000a900460ff16600181111561174c57fe5b600181111561175757fe5b8152505090508060400151838151811061176d57fe5b602002602001015191505092915050565b6000611788612ab4565b60036000848152602001908152602001600020604051806101400160405290816000820160009054906101000a900473ffffffffffffffffffffffffffffffffffffffff1673ffffffffffffffffffffffffffffffffffffffff1673ffffffffffffffffffffffffffffffffffffffff1681526020016001820180548060200260200160405190810160405280929190818152602001828054801561184c57602002820191906000526020600020905b815481526020019060010190808311611838575b50505050508152602001600282018054806020026020016040519081016040528092919081815260200182805480156118a457602002820191906000526020600020905b815481526020019060010190808311611890575b505050505081526020016003820180548060200260200160405190810160405280929190818152602001828054801561193257602002820191906000526020600020905b8160009054906101000a900473ffffffffffffffffffffffffffffffffffffffff1673ffffffffffffffffffffffffffffffffffffffff16815260200190600101908083116118e8575b50505050508152602001600482018054806020026020016040519081016040528092919081815260200182805480156119c057602002820191906000526020600020905b8160009054906101000a900473ffffffffffffffffffffffffffffffffffffffff1673ffffffffffffffffffffffffffffffffffffffff1681526020019060010190808311611976575b50505050508152602001600582015481526020016006820154815260200160078201548152602001600882015481526020016009820160009054906101000a900460ff166001811115611a0f57fe5b6001811115611a1a57fe5b81525050905060006001811115611a2d57fe5b8161012001516001811115611a3e57fe5b1415611a4e576001915050611a54565b60009150505b919050565b60008073ffffffffffffffffffffffffffffffffffffffff166003600084815260200190815260200160002060000160009054906101000a900473ffffffffffffffffffffffffffffffffffffffff1673ffffffffffffffffffffffffffffffffffffffff161415611b16576040517f08c379a0000000000000000000000000000000000000000000000000000000008152600401808060200182810382526024815260200180612d206024913960400191505060405180910390fd5b60006001811115611b2357fe5b6003600084815260200190815260200160002060090160009054906101000a900460ff166001811115611b5257fe5b14611bc5576040517f08c379a00000000000000000000000000000000000000000000000000000000081526004018080602001828103825260148152602001807f4f66666572206d7573742062652061637469766500000000000000000000000081525060200191505060405180910390fd5b60008090505b6003600084815260200190815260200160002060020180549050811015611ff9576000600360008581526020019081526020016000206004018281548110611c0f57fe5b9060005260206000200160009054906101000a900473ffffffffffffffffffffffffffffffffffffffff1690503373ffffffffffffffffffffffffffffffffffffffff168173ffffffffffffffffffffffffffffffffffffffff16636352211e600360008881526020019081526020016000206002018581548110611c9057fe5b90600052602060002001546040518263ffffffff1660e01b81526004018082815260200191505060206040518083038186803b158015611ccf57600080fd5b505afa158015611ce3573d6000803e3d6000fd5b505050506040513d6020811015611cf957600080fd5b810190808051906020019092919050505073ffffffffffffffffffffffffffffffffffffffff1614611d76576040517f08c379a0000000000000000000000000000000000000000000000000000000008152600401808060200182810382526037815260200180612d836037913960400191505060405180910390fd5b8073ffffffffffffffffffffffffffffffffffffffff1663e985e9c533306040518363ffffffff1660e01b8152600401808373ffffffffffffffffffffffffffffffffffffffff1673ffffffffffffffffffffffffffffffffffffffff1681526020018273ffffffffffffffffffffffffffffffffffffffff1673ffffffffffffffffffffffffffffffffffffffff1681526020019250505060206040518083038186803b158015611e2757600080fd5b505afa158015611e3b573d6000803e3d6000fd5b505050506040513d6020811015611e5157600080fd5b8101908080519060200190929190505050611eb7576040517f08c379a000000000000000000000000000000000000000000000000000000000815260040180806020018281038252603f815260200180612d44603f913960400191505060405180910390fd5b8073ffffffffffffffffffffffffffffffffffffffff166342842e0e336003600088815260200190815260200160002060000160009054906101000a900473ffffffffffffffffffffffffffffffffffffffff16600360008981526020019081526020016000206002018681548110611f2c57fe5b90600052602060002001546040518463ffffffff1660e01b8152600401808473ffffffffffffffffffffffffffffffffffffffff1673ffffffffffffffffffffffffffffffffffffffff1681526020018373ffffffffffffffffffffffffffffffffffffffff1673ffffffffffffffffffffffffffffffffffffffff1681526020018281526020019350505050600060405180830381600087803b158015611fd357600080fd5b505af1158015611fe7573d6000803e3d6000fd5b50505050508080600101915050611bcb565b5060008090505b60036000848152602001908152602001600020600101805490508110156121b357600060036000858152602001908152602001600020600401828154811061204457fe5b9060005260206000200160009054906101000a900473ffffffffffffffffffffffffffffffffffffffff1690508073ffffffffffffffffffffffffffffffffffffffff166342842e0e6003600087815260200190815260200160002060000160009054906101000a900473ffffffffffffffffffffffffffffffffffffffff16336003600089815260200190815260200160002060010186815481106120e657fe5b90600052602060002001546040518463ffffffff1660e01b8152600401808473ffffffffffffffffffffffffffffffffffffffff1673ffffffffffffffffffffffffffffffffffffffff1681526020018373ffffffffffffffffffffffffffffffffffffffff1673ffffffffffffffffffffffffffffffffffffffff1681526020018281526020019350505050600060405180830381600087803b15801561218d57600080fd5b505af11580156121a1573d6000803e3d6000fd5b50505050508080600101915050612000565b507f1ddf9505f5dfbca42bfce911805d7dec126e10c11846607a242b0914dc186d17826040518082815260200191505060405180910390a160016003600084815260200190815260200160002060090160006101000a81548160ff0219169083600181111561221e57fe5b0217905550919050565b60006001885110158061223d57506001865110155b612292576040517f08c379a0000000000000000000000000000000000000000000000000000000008152600401808060200182810382526023815260200180612c9a6023913960400191505060405180910390fd5b86518851146122ec576040517f08c379a0000000000000000000000000000000000000000000000000000000008152600401808060200182810382526041815260200180612dba6041913960600191505060405180910390fd5b8451865114612346576040517f08c379a000000000000000000000000000000000000000000000000000000000815260040180806020018281038252603f815260200180612cbd603f913960400191505060405180910390fd5b60008090505b88518110156125fb57600088828151811061236357fe5b602002602001015190503373ffffffffffffffffffffffffffffffffffffffff168173ffffffffffffffffffffffffffffffffffffffff16636352211e8c85815181106123ac57fe5b60200260200101516040518263ffffffff1660e01b81526004018082815260200191505060206040518083038186803b1580156123e857600080fd5b505afa1580156123fc573d6000803e3d6000fd5b505050506040513d602081101561241257600080fd5b810190808051906020019092919050505073ffffffffffffffffffffffffffffffffffffffff16146124ac576040517f08c379a00000000000000000000000000000000000000000000000000000000081526004018080602001828103825260188152602001807f4f66666572657220646f6573206e6f74206f776e204e4654000000000000000081525060200191505060405180910390fd5b8073ffffffffffffffffffffffffffffffffffffffff1663e985e9c533306040518363ffffffff1660e01b8152600401808373ffffffffffffffffffffffffffffffffffffffff1673ffffffffffffffffffffffffffffffffffffffff1681526020018273ffffffffffffffffffffffffffffffffffffffff1673ffffffffffffffffffffffffffffffffffffffff1681526020019250505060206040518083038186803b15801561255d57600080fd5b505afa158015612571573d6000803e3d6000fd5b505050506040513d602081101561258757600080fd5b81019080805190602001909291905050506125ed576040517f08c379a0000000000000000000000000000000000000000000000000000000008152600401808060200182810382526032815260200180612c686032913960400191505060405180910390fd5b50808060010191505061234c565b507fc60c81367c6a883914e4be845cb4d925d275c8737771b1cae52fd40a6f377f346001546040518082815260200191505060405180910390a1600460008373ffffffffffffffffffffffffffffffffffffffff1673ffffffffffffffffffffffffffffffffffffffff16815260200190815260200160002060015490806001815401808255809150506001900390600052602060002001600090919091909150556001600560008473ffffffffffffffffffffffffffffffffffffffff1673ffffffffffffffffffffffffffffffffffffffff1681526020019081526020016000205401600560008473ffffffffffffffffffffffffffffffffffffffff1673ffffffffffffffffffffffffffffffffffffffff16815260200190815260200160002081905550600660003373ffffffffffffffffffffffffffffffffffffffff1673ffffffffffffffffffffffffffffffffffffffff16815260200190815260200160002060015490806001815401808255809150506001900390600052602060002001600090919091909150556001600760003373ffffffffffffffffffffffffffffffffffffffff1673ffffffffffffffffffffffffffffffffffffffff1681526020019081526020016000205401600760003373ffffffffffffffffffffffffffffffffffffffff1673ffffffffffffffffffffffffffffffffffffffff168152602001908152602001600020819055506040518061014001604052803373ffffffffffffffffffffffffffffffffffffffff16815260200189815260200187815260200188815260200186815260200189518152602001875181526020018581526020018481526020016000600181111561287857fe5b81525060036000600154815260200190815260200160002060008201518160000160006101000a81548173ffffffffffffffffffffffffffffffffffffffff021916908373ffffffffffffffffffffffffffffffffffffffff16021790555060208201518160010190805190602001906128f3929190612b28565b506040820151816002019080519060200190612910929190612b28565b50606082015181600301908051906020019061292d929190612b75565b50608082015181600401908051906020019061294a929190612b75565b5060a0820151816005015560c0820151816006015560e0820151816007015561010082015181600801556101208201518160090160006101000a81548160ff0219169083600181111561299957fe5b0217905550905050600180540160018190555060019050979650505050505050565b60003373ffffffffffffffffffffffffffffffffffffffff166003600084815260200190815260200160002060000160009054906101000a900473ffffffffffffffffffffffffffffffffffffffff1673ffffffffffffffffffffffffffffffffffffffff1614612a77576040517f08c379a0000000000000000000000000000000000000000000000000000000008152600401808060200182810382526024815260200180612cfc6024913960400191505060405180910390fd5b60016003600084815260200190815260200160002060090160006101000a81548160ff02191690836001811115612aaa57fe5b0217905550919050565b604051806101400160405280600073ffffffffffffffffffffffffffffffffffffffff168152602001606081526020016060815260200160608152602001606081526020016000815260200160008152602001600081526020016000815260200160006001811115612b2257fe5b81525090565b828054828255906000526020600020908101928215612b64579160200282015b82811115612b63578251825591602001919060010190612b48565b5b509050612b719190612bff565b5090565b828054828255906000526020600020908101928215612bee579160200282015b82811115612bed5782518260006101000a81548173ffffffffffffffffffffffffffffffffffffffff021916908373ffffffffffffffffffffffffffffffffffffffff16021790555091602001919060010190612b95565b5b509050612bfb9190612c24565b5090565b612c2191905b80821115612c1d576000816000905550600101612c05565b5090565b90565b612c6491905b80821115612c6057600081816101000a81549073ffffffffffffffffffffffffffffffffffffffff021916905550600101612c2a565b5090565b9056fe4f66666572657220686173206e6f7420617070726f7665642074686520636f6e747261637420746f2073656e64204e4654734f66666572206d75737420696e636c756465206174206c65617374206f6e65204e46544e465420494473202861736b29206172726179206d757374206265207468652073616d652073697a652061732074686520636f6e74726163742061727261794f6e6c7920746865206f6666657265722063616e2063616e63656c20616e206f666665724f666665726572206d757374206e6f7420626520746865206275726e20616464726573735573657220616363657074696e67206f6666657220686173206e6f7420617070726f7665642074686520636f6e747261637420746f2073656e64204e4654735573657220617474656d7074696e6720746f20616363657074206f6666657220776974686f7574206f776e696e6720746865204e4654734e46542049447320286f6666657229206172726179206d757374206265207468652073616d652073697a652061732074686520636f6e7472616374206172726179a26469706673582212201508e1aa0fa4ca5a5f7274183fa102603127149725d6b63680ad12654c31b0da64736f6c63430006020033",
  "source": "pragma solidity ^0.6.0;\r\n\r\nimport \"../openzeppelin-contracts/contracts/token/ERC721/ERC721.sol\";\r\n\r\ncontract Swap {\r\n\r\n    address public owner;\r\n    uint public offerCount;\r\n    \r\n\r\n    struct TradeOffer {\r\n        address offerer;\r\n        //address asker;\r\n        uint[] offer;\r\n        uint[] ask;\r\n        address[] offerContract;\r\n        address[] askContract;\r\n        uint offerLength;\r\n        uint askLength;\r\n        uint offerVal;\r\n        uint askVal;\r\n        State state;\r\n    }\r\n\r\n    enum State {Active, Closed}\r\n    mapping(address => bool) public approvedERC721;\r\n    mapping(uint => TradeOffer) public offers;\r\n    mapping(address => uint[]) public offersByAddress; \r\n    mapping(address => uint) public offerCountByAddress;\r\n    mapping(address => uint[]) public offersCreatedByAddress; \r\n    mapping(address => uint) public offersCreatedCountByAddress;\r\n\r\n    event LogOfferAdded(uint offerAddedId);\r\n    event LogOfferAccepted(uint offerAcceptedId);\r\n    event LogNFTApproval(address contractAddressApproved);\r\n    event LogNFTRemoval(address contractAddressRemoved);\r\n\r\n\r\n    modifier onlyOwner (address _address) {require(_address == owner); _;}\r\n\r\n    constructor() public {\r\n       owner = msg.sender;\r\n       offerCount = 0;\r\n    }\r\n\r\n    function approveNFT(address _NFTContract) public onlyOwner(msg.sender) {\r\n        emit LogNFTApproval(_NFTContract);\r\n        approvedERC721[_NFTContract] = true;\r\n    }\r\n\r\n    function removeNFT(address _NFTContract) public onlyOwner(msg.sender) {\r\n        emit LogNFTRemoval(_NFTContract);\r\n        approvedERC721[_NFTContract] = false;\r\n    }\r\n\r\n    function addOffer(uint[] memory _offer, address[] memory _offerContract\r\n                    , uint[] memory _ask, address[] memory _askContract\r\n                    , uint _offerVal, uint _askVal, address _targetAddress) public returns (bool) {\r\n\r\n        require(_offer.length >= 1 || _ask.length >= 1, \"Offer must include at least one NFT\");\r\n        require(_offer.length == _offerContract.length, \"NFT IDs (offer) array must be the same size as the contract array\");\r\n        require(_ask.length == _askContract.length, \"NFT IDs (ask) array must be the same size as the contract array\");\r\n        for(uint i = 0; i < _offer.length; i++) {\r\n            ERC721 con = ERC721(_offerContract[i]);\r\n            require(con.ownerOf(_offer[i]) == msg.sender, \"Offerer does not own NFT\");\r\n            require(con.isApprovedForAll(msg.sender, address(this)), \"Offerer has not approved the contract to send NFTs\");\r\n        }\r\n\r\n        emit LogOfferAdded(offerCount);\r\n        offersByAddress[_targetAddress].push(offerCount);\r\n        offerCountByAddress[_targetAddress] = offerCountByAddress[_targetAddress]+1;\r\n        offersCreatedByAddress[msg.sender].push(offerCount);\r\n        offersCreatedCountByAddress[msg.sender] = offersCreatedCountByAddress[msg.sender]+1;\r\n        offers[offerCount] = TradeOffer({offerer: msg.sender\r\n          //  , asker: _targetAddress\r\n            , offer: _offer\r\n            , offerContract:_offerContract\r\n            , ask: _ask\r\n            , askContract:_askContract\r\n            , offerLength:_offer.length\r\n            , askLength:_ask.length\r\n            , offerVal: _offerVal\r\n            , askVal:_askVal\r\n            , state: State.Active});\r\n        offerCount = offerCount + 1;\r\n        \r\n        return true;\r\n    }\r\n\r\n    function acceptOffer(uint _offerId) public returns (bool) {\r\n        require(offers[_offerId].offerer != 0x0000000000000000000000000000000000000000, \"Offerer must not be the burn address\");\r\n        require(offers[_offerId].state == State.Active, \"Offer must be active\");\r\n       // require(offers[_offerId].asker == msg.sender, \"Offer can only be accepted by intended recipient\");\r\n        \r\n        for(uint i = 0; i < offers[_offerId].ask.length; i++) {\r\n            ERC721 con = ERC721(offers[_offerId].askContract[i]);\r\n            require(con.ownerOf(offers[_offerId].ask[i]) == msg.sender, \"User attempting to accept offer without owning the NFTs\");\r\n            require(con.isApprovedForAll(msg.sender, address(this)), \"User accepting offer has not approved the contract to send NFTs\");\r\n            con.safeTransferFrom(msg.sender, offers[_offerId].offerer, offers[_offerId].ask[i]);\r\n        }\r\n        for(uint i = 0; i < offers[_offerId].offer.length; i++) {\r\n            ERC721 con = ERC721(offers[_offerId].askContract[i]);\r\n            con.safeTransferFrom(offers[_offerId].offerer, msg.sender, offers[_offerId].offer[i]);\r\n        }\r\n        emit LogOfferAccepted(_offerId);\r\n        offers[_offerId].state = State.Closed;\r\n    }\r\n\r\n    function cancelOffer(uint _offerId) public returns (bool) {\r\n        require(offers[_offerId].offerer == msg.sender, \"Only the offerer can cancel an offer\");\r\n        offers[_offerId].state = State.Closed;\r\n    }\r\n\r\n    function getOfferFromOffer(uint _offerId, uint _index) public view returns (uint) {\r\n        TradeOffer memory off = offers[_offerId];\r\n        return off.offer[_index];\r\n    }\r\n\r\n    function getOfferFromAsk(uint _offerId, uint _index) public view returns (uint) {\r\n        TradeOffer memory off = offers[_offerId];\r\n        return off.ask[_index];\r\n    }\r\n\r\n    function getOfferLengthFromOffer(uint _offerId) public view returns (uint) {\r\n        TradeOffer memory off = offers[_offerId];\r\n        return off.offerLength;\r\n    }\r\n\r\n    function getOfferLengthFromAsk(uint _offerId) public view returns (uint) {\r\n        TradeOffer memory off = offers[_offerId];\r\n        return off.askLength;\r\n    }\r\n\r\n    function getOfferState(uint _offerId) public view returns (bool) {\r\n        TradeOffer memory off = offers[_offerId];\r\n        if (off.state == State.Active) {\r\n            return true;\r\n        } else {\r\n            return false;\r\n        }\r\n    }\r\n\r\n}",
  "sourcePath": "C:/Users/rober/Code/Consensys/barter/contracts/Swap.sol",
  "compiler": {
    "name": "solc",
    "version": "0.6.2+commit.bacdbe57.Emscripten.clang"
  },
  "schemaVersion": "3.2.5",
  "updatedAt": "2020-11-14T00:40:08.155Z",
  "devdoc": {
    "methods": {}
  },
  "userdoc": {
    "methods": {}
  }
}