{
  "contractName": "Swap",
  "abi": [
    {
      "inputs": [],
      "stateMutability": "nonpayable",
      "type": "constructor"
    },
    {
      "anonymous": false,
      "inputs": [
        {
          "indexed": false,
          "internalType": "address",
          "name": "contractAddressApproved",
          "type": "address"
        }
      ],
      "name": "LogNFTApproval",
      "type": "event"
    },
    {
      "anonymous": false,
      "inputs": [
        {
          "indexed": false,
          "internalType": "address",
          "name": "contractAddressRemoved",
          "type": "address"
        }
      ],
      "name": "LogNFTRemoval",
      "type": "event"
    },
    {
      "anonymous": false,
      "inputs": [
        {
          "indexed": false,
          "internalType": "uint256",
          "name": "offerAcceptedId",
          "type": "uint256"
        }
      ],
      "name": "LogOfferAccepted",
      "type": "event"
    },
    {
      "anonymous": false,
      "inputs": [
        {
          "indexed": false,
          "internalType": "uint256",
          "name": "offerAddedId",
          "type": "uint256"
        }
      ],
      "name": "LogOfferAdded",
      "type": "event"
    },
    {
      "inputs": [
        {
          "internalType": "address",
          "name": "",
          "type": "address"
        }
      ],
      "name": "approvedERC721",
      "outputs": [
        {
          "internalType": "bool",
          "name": "",
          "type": "bool"
        }
      ],
      "stateMutability": "view",
      "type": "function",
      "constant": true
    },
    {
      "inputs": [],
      "name": "offerCount",
      "outputs": [
        {
          "internalType": "uint256",
          "name": "",
          "type": "uint256"
        }
      ],
      "stateMutability": "view",
      "type": "function",
      "constant": true
    },
    {
      "inputs": [
        {
          "internalType": "address",
          "name": "",
          "type": "address"
        }
      ],
      "name": "offerCountByAddress",
      "outputs": [
        {
          "internalType": "uint256",
          "name": "",
          "type": "uint256"
        }
      ],
      "stateMutability": "view",
      "type": "function",
      "constant": true
    },
    {
      "inputs": [
        {
          "internalType": "uint256",
          "name": "",
          "type": "uint256"
        }
      ],
      "name": "offers",
      "outputs": [
        {
          "internalType": "address payable",
          "name": "offerer",
          "type": "address"
        },
        {
          "internalType": "address payable",
          "name": "asker",
          "type": "address"
        },
        {
          "internalType": "uint256",
          "name": "offerLength",
          "type": "uint256"
        },
        {
          "internalType": "uint256",
          "name": "askLength",
          "type": "uint256"
        },
        {
          "internalType": "uint256",
          "name": "offerVal",
          "type": "uint256"
        },
        {
          "internalType": "uint256",
          "name": "askVal",
          "type": "uint256"
        },
        {
          "internalType": "enum Swap.State",
          "name": "state",
          "type": "uint8"
        }
      ],
      "stateMutability": "view",
      "type": "function",
      "constant": true
    },
    {
      "inputs": [
        {
          "internalType": "address",
          "name": "",
          "type": "address"
        },
        {
          "internalType": "uint256",
          "name": "",
          "type": "uint256"
        }
      ],
      "name": "offersByAddress",
      "outputs": [
        {
          "internalType": "uint256",
          "name": "",
          "type": "uint256"
        }
      ],
      "stateMutability": "view",
      "type": "function",
      "constant": true
    },
    {
      "inputs": [
        {
          "internalType": "address",
          "name": "",
          "type": "address"
        },
        {
          "internalType": "uint256",
          "name": "",
          "type": "uint256"
        }
      ],
      "name": "offersCreatedByAddress",
      "outputs": [
        {
          "internalType": "uint256",
          "name": "",
          "type": "uint256"
        }
      ],
      "stateMutability": "view",
      "type": "function",
      "constant": true
    },
    {
      "inputs": [
        {
          "internalType": "address",
          "name": "",
          "type": "address"
        }
      ],
      "name": "offersCreatedCountByAddress",
      "outputs": [
        {
          "internalType": "uint256",
          "name": "",
          "type": "uint256"
        }
      ],
      "stateMutability": "view",
      "type": "function",
      "constant": true
    },
    {
      "inputs": [],
      "name": "owner",
      "outputs": [
        {
          "internalType": "address",
          "name": "",
          "type": "address"
        }
      ],
      "stateMutability": "view",
      "type": "function",
      "constant": true
    },
    {
      "inputs": [
        {
          "internalType": "address",
          "name": "_NFTContract",
          "type": "address"
        }
      ],
      "name": "approveNFT",
      "outputs": [],
      "stateMutability": "nonpayable",
      "type": "function"
    },
    {
      "inputs": [
        {
          "internalType": "address",
          "name": "_NFTContract",
          "type": "address"
        }
      ],
      "name": "removeNFT",
      "outputs": [],
      "stateMutability": "nonpayable",
      "type": "function"
    },
    {
      "inputs": [
        {
          "internalType": "uint256[]",
          "name": "_offer",
          "type": "uint256[]"
        },
        {
          "internalType": "address[]",
          "name": "_offerContract",
          "type": "address[]"
        },
        {
          "internalType": "uint256[]",
          "name": "_ask",
          "type": "uint256[]"
        },
        {
          "internalType": "address[]",
          "name": "_askContract",
          "type": "address[]"
        },
        {
          "internalType": "uint256",
          "name": "_offerVal",
          "type": "uint256"
        },
        {
          "internalType": "uint256",
          "name": "_askVal",
          "type": "uint256"
        },
        {
          "internalType": "address payable",
          "name": "_targetAddress",
          "type": "address"
        }
      ],
      "name": "addOffer",
      "outputs": [
        {
          "internalType": "bool",
          "name": "",
          "type": "bool"
        }
      ],
      "stateMutability": "payable",
      "type": "function",
      "payable": true
    },
    {
      "inputs": [
        {
          "internalType": "uint256",
          "name": "_offerId",
          "type": "uint256"
        }
      ],
      "name": "acceptOffer",
      "outputs": [
        {
          "internalType": "bool",
          "name": "",
          "type": "bool"
        }
      ],
      "stateMutability": "payable",
      "type": "function",
      "payable": true
    },
    {
      "inputs": [
        {
          "internalType": "uint256",
          "name": "_offerId",
          "type": "uint256"
        }
      ],
      "name": "cancelOffer",
      "outputs": [
        {
          "internalType": "bool",
          "name": "",
          "type": "bool"
        }
      ],
      "stateMutability": "nonpayable",
      "type": "function"
    },
    {
      "inputs": [
        {
          "internalType": "uint256",
          "name": "_offerId",
          "type": "uint256"
        },
        {
          "internalType": "uint256",
          "name": "_index",
          "type": "uint256"
        }
      ],
      "name": "getOfferFromOffer",
      "outputs": [
        {
          "internalType": "uint256",
          "name": "",
          "type": "uint256"
        }
      ],
      "stateMutability": "view",
      "type": "function",
      "constant": true
    },
    {
      "inputs": [
        {
          "internalType": "uint256",
          "name": "_offerId",
          "type": "uint256"
        },
        {
          "internalType": "uint256",
          "name": "_index",
          "type": "uint256"
        }
      ],
      "name": "getOfferFromAsk",
      "outputs": [
        {
          "internalType": "uint256",
          "name": "",
          "type": "uint256"
        }
      ],
      "stateMutability": "view",
      "type": "function",
      "constant": true
    },
    {
      "inputs": [
        {
          "internalType": "uint256",
          "name": "_offerId",
          "type": "uint256"
        }
      ],
      "name": "getOfferLengthFromOffer",
      "outputs": [
        {
          "internalType": "uint256",
          "name": "",
          "type": "uint256"
        }
      ],
      "stateMutability": "view",
      "type": "function",
      "constant": true
    },
    {
      "inputs": [
        {
          "internalType": "uint256",
          "name": "_offerId",
          "type": "uint256"
        }
      ],
      "name": "getOfferLengthFromAsk",
      "outputs": [
        {
          "internalType": "uint256",
          "name": "",
          "type": "uint256"
        }
      ],
      "stateMutability": "view",
      "type": "function",
      "constant": true
    },
    {
      "inputs": [
        {
          "internalType": "uint256",
          "name": "_offerId",
          "type": "uint256"
        }
      ],
      "name": "getOfferState",
      "outputs": [
        {
          "internalType": "bool",
          "name": "",
          "type": "bool"
        }
      ],
      "stateMutability": "view",
      "type": "function",
      "constant": true
    },
    {
      "inputs": [
        {
          "internalType": "uint256",
          "name": "_offerId",
          "type": "uint256"
        }
      ],
      "name": "getOfferAskVal",
      "outputs": [
        {
          "internalType": "uint256",
          "name": "",
          "type": "uint256"
        }
      ],
      "stateMutability": "view",
      "type": "function",
      "constant": true
    },
    {
      "inputs": [
        {
          "internalType": "uint256",
          "name": "_offerId",
          "type": "uint256"
        }
      ],
      "name": "getOfferOffVal",
      "outputs": [
        {
          "internalType": "uint256",
          "name": "",
          "type": "uint256"
        }
      ],
      "stateMutability": "view",
      "type": "function",
      "constant": true
    }
  ],
  "bytecode": "0x608060405234801561001057600080fd5b50336000806101000a81548173ffffffffffffffffffffffffffffffffffffffff021916908373ffffffffffffffffffffffffffffffffffffffff1602179055506000600181905550614099806100686000396000f3fe60806040526004361061011f5760003560e01c80636656d736116100a0578063c49e5b5e11610064578063c49e5b5e146106d7578063c815729d1461072a578063d34dbfe014610770578063ee9ee61f146107bf578063ef706adf14610a7f5761011f565b80636656d7361461047a5780638a72ea6a146104e35780638da5cb5b146105c2578063986a258814610619578063ba1c40721461067e5761011f565b806323540450116100e757806323540450146102af5780633505792e146102fe5780633ee037e71461035757806350d72bd3146103c6578063517a72cf146104155761011f565b80630ed642d0146101245780631115c24d1461017557806311e9a95e146101a057806317cc54f7146101f15780632240ba7714610240575b600080fd5b34801561013057600080fd5b506101736004803603602081101561014757600080fd5b81019080803573ffffffffffffffffffffffffffffffffffffffff169060200190929190505050610ad2565b005b34801561018157600080fd5b5061018a610beb565b6040518082815260200191505060405180910390f35b3480156101ac57600080fd5b506101ef600480360360208110156101c357600080fd5b81019080803573ffffffffffffffffffffffffffffffffffffffff169060200190929190505050610bf1565b005b3480156101fd57600080fd5b5061022a6004803603602081101561021457600080fd5b8101908080359060200190929190505050610d0a565b6040518082815260200191505060405180910390f35b34801561024c57600080fd5b506102996004803603604081101561026357600080fd5b81019080803573ffffffffffffffffffffffffffffffffffffffff1690602001909291908035906020019092919050505061100f565b6040518082815260200191505060405180910390f35b3480156102bb57600080fd5b506102e8600480360360208110156102d257600080fd5b810190808035906020019092919050505061103d565b6040518082815260200191505060405180910390f35b34801561030a57600080fd5b506103416004803603604081101561032157600080fd5b810190808035906020019092919080359060200190929190505050611342565b6040518082815260200191505060405180910390f35b34801561036357600080fd5b506103b06004803603604081101561037a57600080fd5b81019080803573ffffffffffffffffffffffffffffffffffffffff1690602001909291908035906020019092919050505061165b565b6040518082815260200191505060405180910390f35b3480156103d257600080fd5b506103ff600480360360208110156103e957600080fd5b8101908080359060200190929190505050611689565b6040518082815260200191505060405180910390f35b34801561042157600080fd5b506104646004803603602081101561043857600080fd5b81019080803573ffffffffffffffffffffffffffffffffffffffff16906020019092919050505061198f565b6040518082815260200191505060405180910390f35b34801561048657600080fd5b506104c96004803603602081101561049d57600080fd5b81019080803573ffffffffffffffffffffffffffffffffffffffff1690602001909291905050506119a7565b604051808215151515815260200191505060405180910390f35b3480156104ef57600080fd5b5061051c6004803603602081101561050657600080fd5b81019080803590602001909291905050506119c7565b604051808873ffffffffffffffffffffffffffffffffffffffff1673ffffffffffffffffffffffffffffffffffffffff1681526020018773ffffffffffffffffffffffffffffffffffffffff1673ffffffffffffffffffffffffffffffffffffffff1681526020018681526020018581526020018481526020018381526020018260018111156105a857fe5b60ff16815260200197505050505050505060405180910390f35b3480156105ce57600080fd5b506105d7611a56565b604051808273ffffffffffffffffffffffffffffffffffffffff1673ffffffffffffffffffffffffffffffffffffffff16815260200191505060405180910390f35b34801561062557600080fd5b506106686004803603602081101561063c57600080fd5b81019080803573ffffffffffffffffffffffffffffffffffffffff169060200190929190505050611a7b565b6040518082815260200191505060405180910390f35b34801561068a57600080fd5b506106c1600480360360408110156106a157600080fd5b810190808035906020019092919080359060200190929190505050611a93565b6040518082815260200191505060405180910390f35b3480156106e357600080fd5b50610710600480360360208110156106fa57600080fd5b8101908080359060200190929190505050611dac565b604051808215151515815260200191505060405180910390f35b6107566004803603602081101561074057600080fd5b81019080803590602001909291905050506120dd565b604051808215151515815260200191505060405180910390f35b34801561077c57600080fd5b506107a96004803603602081101561079357600080fd5b8101908080359060200190929190505050612e28565b6040518082815260200191505060405180910390f35b610a65600480360360e08110156107d557600080fd5b81019080803590602001906401000000008111156107f257600080fd5b82018360208201111561080457600080fd5b8035906020019184602083028401116401000000008311171561082657600080fd5b919080806020026020016040519081016040528093929190818152602001838360200280828437600081840152601f19601f8201169050808301925050505050505091929192908035906020019064010000000081111561088657600080fd5b82018360208201111561089857600080fd5b803590602001918460208302840111640100000000831117156108ba57600080fd5b919080806020026020016040519081016040528093929190818152602001838360200280828437600081840152601f19601f8201169050808301925050505050505091929192908035906020019064010000000081111561091a57600080fd5b82018360208201111561092c57600080fd5b8035906020019184602083028401116401000000008311171561094e57600080fd5b919080806020026020016040519081016040528093929190818152602001838360200280828437600081840152601f19601f820116905080830192505050505050509192919290803590602001906401000000008111156109ae57600080fd5b8201836020820111156109c057600080fd5b803590602001918460208302840111640100000000831117156109e257600080fd5b919080806020026020016040519081016040528093929190818152602001838360200280828437600081840152601f19601f8201169050808301925050505050505091929192908035906020019092919080359060200190929190803573ffffffffffffffffffffffffffffffffffffffff16906020019092919050505061312e565b604051808215151515815260200191505060405180910390f35b348015610a8b57600080fd5b50610ab860048036036020811015610aa257600080fd5b810190808035906020019092919050505061397d565b604051808215151515815260200191505060405180910390f35b336000809054906101000a900473ffffffffffffffffffffffffffffffffffffffff1673ffffffffffffffffffffffffffffffffffffffff168173ffffffffffffffffffffffffffffffffffffffff1614610b2c57600080fd5b7febfe7b89bc8879c540005795f5110bc5f731b2c00294c47b1247f41bcb1bd42782604051808273ffffffffffffffffffffffffffffffffffffffff1673ffffffffffffffffffffffffffffffffffffffff16815260200191505060405180910390a16000600260008473ffffffffffffffffffffffffffffffffffffffff1673ffffffffffffffffffffffffffffffffffffffff16815260200190815260200160002060006101000a81548160ff0219169083151502179055505050565b60015481565b336000809054906101000a900473ffffffffffffffffffffffffffffffffffffffff1673ffffffffffffffffffffffffffffffffffffffff168173ffffffffffffffffffffffffffffffffffffffff1614610c4b57600080fd5b7f51a951a433bd62c9bd3d80facce59480479f8fcf925c79971019eb97f628585082604051808273ffffffffffffffffffffffffffffffffffffffff1673ffffffffffffffffffffffffffffffffffffffff16815260200191505060405180910390a16001600260008473ffffffffffffffffffffffffffffffffffffffff1673ffffffffffffffffffffffffffffffffffffffff16815260200190815260200160002060006101000a81548160ff0219169083151502179055505050565b6000610d14613c24565b60036000848152602001908152602001600020604051806101600160405290816000820160009054906101000a900473ffffffffffffffffffffffffffffffffffffffff1673ffffffffffffffffffffffffffffffffffffffff1673ffffffffffffffffffffffffffffffffffffffff1681526020016001820160009054906101000a900473ffffffffffffffffffffffffffffffffffffffff1673ffffffffffffffffffffffffffffffffffffffff1673ffffffffffffffffffffffffffffffffffffffff16815260200160028201805480602002602001604051908101604052809291908181526020018280548015610e2e57602002820191906000526020600020905b815481526020019060010190808311610e1a575b5050505050815260200160038201805480602002602001604051908101604052809291908181526020018280548015610e8657602002820191906000526020600020905b815481526020019060010190808311610e72575b5050505050815260200160048201805480602002602001604051908101604052809291908181526020018280548015610f1457602002820191906000526020600020905b8160009054906101000a900473ffffffffffffffffffffffffffffffffffffffff1673ffffffffffffffffffffffffffffffffffffffff1681526020019060010190808311610eca575b5050505050815260200160058201805480602002602001604051908101604052809291908181526020018280548015610fa257602002820191906000526020600020905b8160009054906101000a900473ffffffffffffffffffffffffffffffffffffffff1673ffffffffffffffffffffffffffffffffffffffff1681526020019060010190808311610f58575b5050505050815260200160068201548152602001600782015481526020016008820154815260200160098201548152602001600a820160009054906101000a900460ff166001811115610ff157fe5b6001811115610ffc57fe5b8152505090508060c00151915050919050565b6006602052816000526040600020818154811061102857fe5b90600052602060002001600091509150505481565b6000611047613c24565b60036000848152602001908152602001600020604051806101600160405290816000820160009054906101000a900473ffffffffffffffffffffffffffffffffffffffff1673ffffffffffffffffffffffffffffffffffffffff1673ffffffffffffffffffffffffffffffffffffffff1681526020016001820160009054906101000a900473ffffffffffffffffffffffffffffffffffffffff1673ffffffffffffffffffffffffffffffffffffffff1673ffffffffffffffffffffffffffffffffffffffff1681526020016002820180548060200260200160405190810160405280929190818152602001828054801561116157602002820191906000526020600020905b81548152602001906001019080831161114d575b50505050508152602001600382018054806020026020016040519081016040528092919081815260200182805480156111b957602002820191906000526020600020905b8154815260200190600101908083116111a5575b505050505081526020016004820180548060200260200160405190810160405280929190818152602001828054801561124757602002820191906000526020600020905b8160009054906101000a900473ffffffffffffffffffffffffffffffffffffffff1673ffffffffffffffffffffffffffffffffffffffff16815260200190600101908083116111fd575b50505050508152602001600582018054806020026020016040519081016040528092919081815260200182805480156112d557602002820191906000526020600020905b8160009054906101000a900473ffffffffffffffffffffffffffffffffffffffff1673ffffffffffffffffffffffffffffffffffffffff168152602001906001019080831161128b575b5050505050815260200160068201548152602001600782015481526020016008820154815260200160098201548152602001600a820160009054906101000a900460ff16600181111561132457fe5b600181111561132f57fe5b8152505090508060e00151915050919050565b600061134c613c24565b60036000858152602001908152602001600020604051806101600160405290816000820160009054906101000a900473ffffffffffffffffffffffffffffffffffffffff1673ffffffffffffffffffffffffffffffffffffffff1673ffffffffffffffffffffffffffffffffffffffff1681526020016001820160009054906101000a900473ffffffffffffffffffffffffffffffffffffffff1673ffffffffffffffffffffffffffffffffffffffff1673ffffffffffffffffffffffffffffffffffffffff1681526020016002820180548060200260200160405190810160405280929190818152602001828054801561146657602002820191906000526020600020905b815481526020019060010190808311611452575b50505050508152602001600382018054806020026020016040519081016040528092919081815260200182805480156114be57602002820191906000526020600020905b8154815260200190600101908083116114aa575b505050505081526020016004820180548060200260200160405190810160405280929190818152602001828054801561154c57602002820191906000526020600020905b8160009054906101000a900473ffffffffffffffffffffffffffffffffffffffff1673ffffffffffffffffffffffffffffffffffffffff1681526020019060010190808311611502575b50505050508152602001600582018054806020026020016040519081016040528092919081815260200182805480156115da57602002820191906000526020600020905b8160009054906101000a900473ffffffffffffffffffffffffffffffffffffffff1673ffffffffffffffffffffffffffffffffffffffff1681526020019060010190808311611590575b5050505050815260200160068201548152602001600782015481526020016008820154815260200160098201548152602001600a820160009054906101000a900460ff16600181111561162957fe5b600181111561163457fe5b8152505090508060400151838151811061164a57fe5b602002602001015191505092915050565b6004602052816000526040600020818154811061167457fe5b90600052602060002001600091509150505481565b6000611693613c24565b60036000848152602001908152602001600020604051806101600160405290816000820160009054906101000a900473ffffffffffffffffffffffffffffffffffffffff1673ffffffffffffffffffffffffffffffffffffffff1673ffffffffffffffffffffffffffffffffffffffff1681526020016001820160009054906101000a900473ffffffffffffffffffffffffffffffffffffffff1673ffffffffffffffffffffffffffffffffffffffff1673ffffffffffffffffffffffffffffffffffffffff168152602001600282018054806020026020016040519081016040528092919081815260200182805480156117ad57602002820191906000526020600020905b815481526020019060010190808311611799575b505050505081526020016003820180548060200260200160405190810160405280929190818152602001828054801561180557602002820191906000526020600020905b8154815260200190600101908083116117f1575b505050505081526020016004820180548060200260200160405190810160405280929190818152602001828054801561189357602002820191906000526020600020905b8160009054906101000a900473ffffffffffffffffffffffffffffffffffffffff1673ffffffffffffffffffffffffffffffffffffffff1681526020019060010190808311611849575b505050505081526020016005820180548060200260200160405190810160405280929190818152602001828054801561192157602002820191906000526020600020905b8160009054906101000a900473ffffffffffffffffffffffffffffffffffffffff1673ffffffffffffffffffffffffffffffffffffffff16815260200190600101908083116118d7575b5050505050815260200160068201548152602001600782015481526020016008820154815260200160098201548152602001600a820160009054906101000a900460ff16600181111561197057fe5b600181111561197b57fe5b815250509050806101000151915050919050565b60076020528060005260406000206000915090505481565b60026020528060005260406000206000915054906101000a900460ff1681565b60036020528060005260406000206000915090508060000160009054906101000a900473ffffffffffffffffffffffffffffffffffffffff16908060010160009054906101000a900473ffffffffffffffffffffffffffffffffffffffff169080600601549080600701549080600801549080600901549080600a0160009054906101000a900460ff16905087565b6000809054906101000a900473ffffffffffffffffffffffffffffffffffffffff1681565b60056020528060005260406000206000915090505481565b6000611a9d613c24565b60036000858152602001908152602001600020604051806101600160405290816000820160009054906101000a900473ffffffffffffffffffffffffffffffffffffffff1673ffffffffffffffffffffffffffffffffffffffff1673ffffffffffffffffffffffffffffffffffffffff1681526020016001820160009054906101000a900473ffffffffffffffffffffffffffffffffffffffff1673ffffffffffffffffffffffffffffffffffffffff1673ffffffffffffffffffffffffffffffffffffffff16815260200160028201805480602002602001604051908101604052809291908181526020018280548015611bb757602002820191906000526020600020905b815481526020019060010190808311611ba3575b5050505050815260200160038201805480602002602001604051908101604052809291908181526020018280548015611c0f57602002820191906000526020600020905b815481526020019060010190808311611bfb575b5050505050815260200160048201805480602002602001604051908101604052809291908181526020018280548015611c9d57602002820191906000526020600020905b8160009054906101000a900473ffffffffffffffffffffffffffffffffffffffff1673ffffffffffffffffffffffffffffffffffffffff1681526020019060010190808311611c53575b5050505050815260200160058201805480602002602001604051908101604052809291908181526020018280548015611d2b57602002820191906000526020600020905b8160009054906101000a900473ffffffffffffffffffffffffffffffffffffffff1673ffffffffffffffffffffffffffffffffffffffff1681526020019060010190808311611ce1575b5050505050815260200160068201548152602001600782015481526020016008820154815260200160098201548152602001600a820160009054906101000a900460ff166001811115611d7a57fe5b6001811115611d8557fe5b81525050905080606001518381518110611d9b57fe5b602002602001015191505092915050565b6000611db6613c24565b60036000848152602001908152602001600020604051806101600160405290816000820160009054906101000a900473ffffffffffffffffffffffffffffffffffffffff1673ffffffffffffffffffffffffffffffffffffffff1673ffffffffffffffffffffffffffffffffffffffff1681526020016001820160009054906101000a900473ffffffffffffffffffffffffffffffffffffffff1673ffffffffffffffffffffffffffffffffffffffff1673ffffffffffffffffffffffffffffffffffffffff16815260200160028201805480602002602001604051908101604052809291908181526020018280548015611ed057602002820191906000526020600020905b815481526020019060010190808311611ebc575b5050505050815260200160038201805480602002602001604051908101604052809291908181526020018280548015611f2857602002820191906000526020600020905b815481526020019060010190808311611f14575b5050505050815260200160048201805480602002602001604051908101604052809291908181526020018280548015611fb657602002820191906000526020600020905b8160009054906101000a900473ffffffffffffffffffffffffffffffffffffffff1673ffffffffffffffffffffffffffffffffffffffff1681526020019060010190808311611f6c575b505050505081526020016005820180548060200260200160405190810160405280929190818152602001828054801561204457602002820191906000526020600020905b8160009054906101000a900473ffffffffffffffffffffffffffffffffffffffff1673ffffffffffffffffffffffffffffffffffffffff1681526020019060010190808311611ffa575b5050505050815260200160068201548152602001600782015481526020016008820154815260200160098201548152602001600a820160009054906101000a900460ff16600181111561209357fe5b600181111561209e57fe5b815250509050600060018111156120b157fe5b81610140015160018111156120c257fe5b14156120d25760019150506120d8565b60009150505b919050565b60008073ffffffffffffffffffffffffffffffffffffffff166003600084815260200190815260200160002060000160009054906101000a900473ffffffffffffffffffffffffffffffffffffffff1673ffffffffffffffffffffffffffffffffffffffff16141561219a576040517f08c379a0000000000000000000000000000000000000000000000000000000008152600401808060200182810382526024815260200180613edd6024913960400191505060405180910390fd5b600060018111156121a757fe5b60036000848152602001908152602001600020600a0160009054906101000a900460ff1660018111156121d657fe5b14612249576040517f08c379a00000000000000000000000000000000000000000000000000000000081526004018080602001828103825260148152602001807f4f66666572206d7573742062652061637469766500000000000000000000000081525060200191505060405180910390fd5b600160036000848152602001908152602001600020600a0160006101000a81548160ff0219169083600181111561227c57fe5b02179055503373ffffffffffffffffffffffffffffffffffffffff166003600084815260200190815260200160002060010160009054906101000a900473ffffffffffffffffffffffffffffffffffffffff1673ffffffffffffffffffffffffffffffffffffffff161461233b576040517f08c379a0000000000000000000000000000000000000000000000000000000008152600401808060200182810382526030815260200180613e276030913960400191505060405180910390fd5b346003600084815260200190815260200160002060090154146123c6576040517f08c379a00000000000000000000000000000000000000000000000000000000081526004018080602001828103825260208152602001807f4d75737420696e636c7564652072657175697265642045544820616d6f756e7481525060200191505060405180910390fd5b60008090505b60036000848152602001908152602001600020600301805490508110156127fa57600060036000858152602001908152602001600020600501828154811061241057fe5b9060005260206000200160009054906101000a900473ffffffffffffffffffffffffffffffffffffffff1690503373ffffffffffffffffffffffffffffffffffffffff168173ffffffffffffffffffffffffffffffffffffffff16636352211e60036000888152602001908152602001600020600301858154811061249157fe5b90600052602060002001546040518263ffffffff1660e01b81526004018082815260200191505060206040518083038186803b1580156124d057600080fd5b505afa1580156124e4573d6000803e3d6000fd5b505050506040513d60208110156124fa57600080fd5b810190808051906020019092919050505073ffffffffffffffffffffffffffffffffffffffff1614612577576040517f08c379a0000000000000000000000000000000000000000000000000000000008152600401808060200182810382526037815260200180613f406037913960400191505060405180910390fd5b8073ffffffffffffffffffffffffffffffffffffffff1663e985e9c533306040518363ffffffff1660e01b8152600401808373ffffffffffffffffffffffffffffffffffffffff1673ffffffffffffffffffffffffffffffffffffffff1681526020018273ffffffffffffffffffffffffffffffffffffffff1673ffffffffffffffffffffffffffffffffffffffff1681526020019250505060206040518083038186803b15801561262857600080fd5b505afa15801561263c573d6000803e3d6000fd5b505050506040513d602081101561265257600080fd5b81019080805190602001909291905050506126b8576040517f08c379a000000000000000000000000000000000000000000000000000000000815260040180806020018281038252603f815260200180613f01603f913960400191505060405180910390fd5b8073ffffffffffffffffffffffffffffffffffffffff166342842e0e336003600088815260200190815260200160002060000160009054906101000a900473ffffffffffffffffffffffffffffffffffffffff1660036000898152602001908152602001600020600301868154811061272d57fe5b90600052602060002001546040518463ffffffff1660e01b8152600401808473ffffffffffffffffffffffffffffffffffffffff1673ffffffffffffffffffffffffffffffffffffffff1681526020018373ffffffffffffffffffffffffffffffffffffffff1673ffffffffffffffffffffffffffffffffffffffff1681526020018281526020019350505050600060405180830381600087803b1580156127d457600080fd5b505af11580156127e8573d6000803e3d6000fd5b505050505080806001019150506123cc565b5060008090505b6003600084815260200190815260200160002060020180549050811015612c9b57600060036000858152602001908152602001600020600401828154811061284557fe5b9060005260206000200160009054906101000a900473ffffffffffffffffffffffffffffffffffffffff1690506003600085815260200190815260200160002060000160009054906101000a900473ffffffffffffffffffffffffffffffffffffffff1673ffffffffffffffffffffffffffffffffffffffff168173ffffffffffffffffffffffffffffffffffffffff16636352211e6003600088815260200190815260200160002060020185815481106128fc57fe5b90600052602060002001546040518263ffffffff1660e01b81526004018082815260200191505060206040518083038186803b15801561293b57600080fd5b505afa15801561294f573d6000803e3d6000fd5b505050506040513d602081101561296557600080fd5b810190808051906020019092919050505073ffffffffffffffffffffffffffffffffffffffff16146129e2576040517f08c379a000000000000000000000000000000000000000000000000000000000815260040180806020018281038252603b815260200180613f77603b913960400191505060405180910390fd5b8073ffffffffffffffffffffffffffffffffffffffff1663e985e9c56003600087815260200190815260200160002060000160009054906101000a900473ffffffffffffffffffffffffffffffffffffffff16306040518363ffffffff1660e01b8152600401808373ffffffffffffffffffffffffffffffffffffffff1673ffffffffffffffffffffffffffffffffffffffff1681526020018273ffffffffffffffffffffffffffffffffffffffff1673ffffffffffffffffffffffffffffffffffffffff1681526020019250505060206040518083038186803b158015612ac957600080fd5b505afa158015612add573d6000803e3d6000fd5b505050506040513d6020811015612af357600080fd5b8101908080519060200190929190505050612b59576040517f08c379a0000000000000000000000000000000000000000000000000000000008152600401808060200182810382526045815260200180613fb26045913960600191505060405180910390fd5b8073ffffffffffffffffffffffffffffffffffffffff166342842e0e6003600087815260200190815260200160002060000160009054906101000a900473ffffffffffffffffffffffffffffffffffffffff1633600360008981526020019081526020016000206002018681548110612bce57fe5b90600052602060002001546040518463ffffffff1660e01b8152600401808473ffffffffffffffffffffffffffffffffffffffff1673ffffffffffffffffffffffffffffffffffffffff1681526020018373ffffffffffffffffffffffffffffffffffffffff1673ffffffffffffffffffffffffffffffffffffffff1681526020018281526020019350505050600060405180830381600087803b158015612c7557600080fd5b505af1158015612c89573d6000803e3d6000fd5b50505050508080600101915050612801565b50600060036000848152602001908152602001600020600801541115612d4f576003600083815260200190815260200160002060010160009054906101000a900473ffffffffffffffffffffffffffffffffffffffff1673ffffffffffffffffffffffffffffffffffffffff166108fc60036000858152602001908152602001600020600801549081150290604051600060405180830381858888f19350505050158015612d4d573d6000803e3d6000fd5b505b600060036000848152602001908152602001600020600901541115612dec576003600083815260200190815260200160002060000160009054906101000a900473ffffffffffffffffffffffffffffffffffffffff1673ffffffffffffffffffffffffffffffffffffffff166108fc349081150290604051600060405180830381858888f19350505050158015612dea573d6000803e3d6000fd5b505b7f1ddf9505f5dfbca42bfce911805d7dec126e10c11846607a242b0914dc186d17826040518082815260200191505060405180910390a1919050565b6000612e32613c24565b60036000848152602001908152602001600020604051806101600160405290816000820160009054906101000a900473ffffffffffffffffffffffffffffffffffffffff1673ffffffffffffffffffffffffffffffffffffffff1673ffffffffffffffffffffffffffffffffffffffff1681526020016001820160009054906101000a900473ffffffffffffffffffffffffffffffffffffffff1673ffffffffffffffffffffffffffffffffffffffff1673ffffffffffffffffffffffffffffffffffffffff16815260200160028201805480602002602001604051908101604052809291908181526020018280548015612f4c57602002820191906000526020600020905b815481526020019060010190808311612f38575b5050505050815260200160038201805480602002602001604051908101604052809291908181526020018280548015612fa457602002820191906000526020600020905b815481526020019060010190808311612f90575b505050505081526020016004820180548060200260200160405190810160405280929190818152602001828054801561303257602002820191906000526020600020905b8160009054906101000a900473ffffffffffffffffffffffffffffffffffffffff1673ffffffffffffffffffffffffffffffffffffffff1681526020019060010190808311612fe8575b50505050508152602001600582018054806020026020016040519081016040528092919081815260200182805480156130c057602002820191906000526020600020905b8160009054906101000a900473ffffffffffffffffffffffffffffffffffffffff1673ffffffffffffffffffffffffffffffffffffffff1681526020019060010190808311613076575b5050505050815260200160068201548152602001600782015481526020016008820154815260200160098201548152602001600a820160009054906101000a900460ff16600181111561310f57fe5b600181111561311a57fe5b815250509050806101200151915050919050565b60006001885110158061314357506001865110155b613198576040517f08c379a0000000000000000000000000000000000000000000000000000000008152600401808060200182810382526023815260200180613e576023913960400191505060405180910390fd5b86518851146131f2576040517f08c379a00000000000000000000000000000000000000000000000000000000081526004018080602001828103825260418152602001806140236041913960600191505060405180910390fd5b845186511461324c576040517f08c379a000000000000000000000000000000000000000000000000000000000815260040180806020018281038252603f815260200180613e7a603f913960400191505060405180910390fd5b3484146132a4576040517f08c379a000000000000000000000000000000000000000000000000000000000815260040180806020018281038252602c815260200180613ff7602c913960400191505060405180910390fd5b60008090505b88518110156135595760008882815181106132c157fe5b602002602001015190503373ffffffffffffffffffffffffffffffffffffffff168173ffffffffffffffffffffffffffffffffffffffff16636352211e8c858151811061330a57fe5b60200260200101516040518263ffffffff1660e01b81526004018082815260200191505060206040518083038186803b15801561334657600080fd5b505afa15801561335a573d6000803e3d6000fd5b505050506040513d602081101561337057600080fd5b810190808051906020019092919050505073ffffffffffffffffffffffffffffffffffffffff161461340a576040517f08c379a00000000000000000000000000000000000000000000000000000000081526004018080602001828103825260188152602001807f4f66666572657220646f6573206e6f74206f776e204e4654000000000000000081525060200191505060405180910390fd5b8073ffffffffffffffffffffffffffffffffffffffff1663e985e9c533306040518363ffffffff1660e01b8152600401808373ffffffffffffffffffffffffffffffffffffffff1673ffffffffffffffffffffffffffffffffffffffff1681526020018273ffffffffffffffffffffffffffffffffffffffff1673ffffffffffffffffffffffffffffffffffffffff1681526020019250505060206040518083038186803b1580156134bb57600080fd5b505afa1580156134cf573d6000803e3d6000fd5b505050506040513d60208110156134e557600080fd5b810190808051906020019092919050505061354b576040517f08c379a0000000000000000000000000000000000000000000000000000000008152600401808060200182810382526032815260200180613df56032913960400191505060405180910390fd5b5080806001019150506132aa565b507fc60c81367c6a883914e4be845cb4d925d275c8737771b1cae52fd40a6f377f346001546040518082815260200191505060405180910390a1600460008373ffffffffffffffffffffffffffffffffffffffff1673ffffffffffffffffffffffffffffffffffffffff16815260200190815260200160002060015490806001815401808255809150506001900390600052602060002001600090919091909150556001600560008473ffffffffffffffffffffffffffffffffffffffff1673ffffffffffffffffffffffffffffffffffffffff1681526020019081526020016000205401600560008473ffffffffffffffffffffffffffffffffffffffff1673ffffffffffffffffffffffffffffffffffffffff16815260200190815260200160002081905550600660003373ffffffffffffffffffffffffffffffffffffffff1673ffffffffffffffffffffffffffffffffffffffff16815260200190815260200160002060015490806001815401808255809150506001900390600052602060002001600090919091909150556001600760003373ffffffffffffffffffffffffffffffffffffffff1673ffffffffffffffffffffffffffffffffffffffff1681526020019081526020016000205401600760003373ffffffffffffffffffffffffffffffffffffffff1673ffffffffffffffffffffffffffffffffffffffff168152602001908152602001600020819055506040518061016001604052803373ffffffffffffffffffffffffffffffffffffffff1681526020018373ffffffffffffffffffffffffffffffffffffffff1681526020018981526020018781526020018881526020018681526020018951815260200187518152602001858152602001848152602001600060018111156137f257fe5b81525060036000600154815260200190815260200160002060008201518160000160006101000a81548173ffffffffffffffffffffffffffffffffffffffff021916908373ffffffffffffffffffffffffffffffffffffffff16021790555060208201518160010160006101000a81548173ffffffffffffffffffffffffffffffffffffffff021916908373ffffffffffffffffffffffffffffffffffffffff16021790555060408201518160020190805190602001906138b4929190613cb5565b5060608201518160030190805190602001906138d1929190613cb5565b5060808201518160040190805190602001906138ee929190613d02565b5060a082015181600501908051906020019061390b929190613d02565b5060c0820151816006015560e082015181600701556101008201518160080155610120820151816009015561014082015181600a0160006101000a81548160ff0219169083600181111561395b57fe5b0217905550905050600180540160018190555060019050979650505050505050565b60003373ffffffffffffffffffffffffffffffffffffffff166003600084815260200190815260200160002060000160009054906101000a900473ffffffffffffffffffffffffffffffffffffffff1673ffffffffffffffffffffffffffffffffffffffff161480613a5057503373ffffffffffffffffffffffffffffffffffffffff166003600084815260200190815260200160002060010160009054906101000a900473ffffffffffffffffffffffffffffffffffffffff1673ffffffffffffffffffffffffffffffffffffffff16145b613aa5576040517f08c379a0000000000000000000000000000000000000000000000000000000008152600401808060200182810382526024815260200180613eb96024913960400191505060405180910390fd5b60006001811115613ab257fe5b60036000848152602001908152602001600020600a0160009054906101000a900460ff166001811115613ae157fe5b14613b54576040517f08c379a000000000000000000000000000000000000000000000000000000000815260040180806020018281038252601c8152602001807f54686973206f6666657220697320616c726561647920636c6f7365640000000081525060200191505060405180910390fd5b600160036000848152602001908152602001600020600a0160006101000a81548160ff02191690836001811115613b8757fe5b02179055506003600083815260200190815260200160002060000160009054906101000a900473ffffffffffffffffffffffffffffffffffffffff1673ffffffffffffffffffffffffffffffffffffffff166108fc60036000858152602001908152602001600020600801549081150290604051600060405180830381858888f19350505050158015613c1e573d6000803e3d6000fd5b50919050565b604051806101600160405280600073ffffffffffffffffffffffffffffffffffffffff168152602001600073ffffffffffffffffffffffffffffffffffffffff168152602001606081526020016060815260200160608152602001606081526020016000815260200160008152602001600081526020016000815260200160006001811115613caf57fe5b81525090565b828054828255906000526020600020908101928215613cf1579160200282015b82811115613cf0578251825591602001919060010190613cd5565b5b509050613cfe9190613d8c565b5090565b828054828255906000526020600020908101928215613d7b579160200282015b82811115613d7a5782518260006101000a81548173ffffffffffffffffffffffffffffffffffffffff021916908373ffffffffffffffffffffffffffffffffffffffff16021790555091602001919060010190613d22565b5b509050613d889190613db1565b5090565b613dae91905b80821115613daa576000816000905550600101613d92565b5090565b90565b613df191905b80821115613ded57600081816101000a81549073ffffffffffffffffffffffffffffffffffffffff021916905550600101613db7565b5090565b9056fe4f66666572657220686173206e6f7420617070726f7665642074686520636f6e747261637420746f2073656e64204e4654734f666665722063616e206f6e6c7920626520616363657074656420627920696e74656e64656420726563697069656e744f66666572206d75737420696e636c756465206174206c65617374206f6e65204e46544e465420494473202861736b29206172726179206d757374206265207468652073616d652073697a652061732074686520636f6e74726163742061727261794f6e6c7920746865206f6666657265722063616e2063616e63656c20616e206f666665724f666665726572206d757374206e6f7420626520746865206275726e20616464726573735573657220616363657074696e67206f6666657220686173206e6f7420617070726f7665642074686520636f6e747261637420746f2073656e64204e4654735573657220617474656d7074696e6720746f20616363657074206f6666657220776974686f7574206f776e696e6720746865204e4654735573657220617474656d7074696e6720746f20616363657074206f666665722074686174206f6666657265722063616e6e6f742066756c66696c6c4f726967696e616c206f666665726572206e6f206c6f6e67657220686173207472616e7366657220656e61626c656420666f722074686973204e465420636f6e74726163744d75737420696e636c7564652045544820746f206d61746368206f6666657265642045544820616d6f756e744e46542049447320286f6666657229206172726179206d757374206265207468652073616d652073697a652061732074686520636f6e7472616374206172726179a2646970667358221220a6e50556591a5960d6d68f8bf3fdd68f4cf483fcc9b4134ec4f3392e0ce01e2b64736f6c63430006020033",
  "source": "pragma solidity ^0.6.0;\r\n\r\nimport \"../openzeppelin-contracts/contracts/token/ERC721/ERC721.sol\";\r\n\r\ncontract Swap {\r\n\r\n    address public owner;\r\n    uint public offerCount;\r\n    \r\n\r\n    struct TradeOffer {\r\n        address payable offerer;\r\n        address payable asker;\r\n        uint[] offer;\r\n        uint[] ask;\r\n        address[] offerContract;\r\n        address[] askContract;\r\n        uint offerLength;\r\n        uint askLength;\r\n        uint offerVal;\r\n        uint askVal;\r\n        State state;\r\n    }\r\n\r\n    enum State {Active, Closed}\r\n    mapping(address => bool) public approvedERC721;\r\n    mapping(uint => TradeOffer) public offers;\r\n    mapping(address => uint[]) public offersByAddress; \r\n    mapping(address => uint) public offerCountByAddress;\r\n    mapping(address => uint[]) public offersCreatedByAddress; \r\n    mapping(address => uint) public offersCreatedCountByAddress;\r\n\r\n    event LogOfferAdded(uint offerAddedId);\r\n    event LogOfferAccepted(uint offerAcceptedId);\r\n    event LogNFTApproval(address contractAddressApproved);\r\n    event LogNFTRemoval(address contractAddressRemoved);\r\n\r\n\r\n    modifier onlyOwner (address _address) {require(_address == owner); _;}\r\n\r\n    constructor() public {\r\n       owner = msg.sender;\r\n       offerCount = 0;\r\n    }\r\n\r\n    function approveNFT(address _NFTContract) public onlyOwner(msg.sender) {\r\n        emit LogNFTApproval(_NFTContract);\r\n        approvedERC721[_NFTContract] = true;\r\n    }\r\n\r\n    function removeNFT(address _NFTContract) public onlyOwner(msg.sender) {\r\n        emit LogNFTRemoval(_NFTContract);\r\n        approvedERC721[_NFTContract] = false;\r\n    }\r\n\r\n    function addOffer(uint[] memory _offer, address[] memory _offerContract\r\n                    , uint[] memory _ask, address[] memory _askContract\r\n                    , uint _offerVal, uint _askVal, address payable _targetAddress) public payable returns (bool) {\r\n\r\n        require(_offer.length >= 1 || _ask.length >= 1, \"Offer must include at least one NFT\");\r\n        require(_offer.length == _offerContract.length, \"NFT IDs (offer) array must be the same size as the contract array\");\r\n        require(_ask.length == _askContract.length, \"NFT IDs (ask) array must be the same size as the contract array\");\r\n        require(_offerVal == msg.value, \"Must include ETH to match offered ETH amount\");\r\n        for(uint i = 0; i < _offer.length; i++) {\r\n            ERC721 con = ERC721(_offerContract[i]);\r\n            require(con.ownerOf(_offer[i]) == msg.sender, \"Offerer does not own NFT\");\r\n            require(con.isApprovedForAll(msg.sender, address(this)), \"Offerer has not approved the contract to send NFTs\");\r\n        }\r\n\r\n        emit LogOfferAdded(offerCount);\r\n        offersByAddress[_targetAddress].push(offerCount);\r\n        offerCountByAddress[_targetAddress] = offerCountByAddress[_targetAddress]+1;\r\n        offersCreatedByAddress[msg.sender].push(offerCount);\r\n        offersCreatedCountByAddress[msg.sender] = offersCreatedCountByAddress[msg.sender]+1;\r\n        offers[offerCount] = TradeOffer({offerer: msg.sender\r\n            , asker: _targetAddress\r\n            , offer: _offer\r\n            , offerContract:_offerContract\r\n            , ask: _ask\r\n            , askContract:_askContract\r\n            , offerLength:_offer.length\r\n            , askLength:_ask.length\r\n            , offerVal: _offerVal\r\n            , askVal:_askVal\r\n            , state: State.Active});\r\n        offerCount = offerCount + 1;\r\n        \r\n        return true;\r\n    }\r\n\r\n    function acceptOffer(uint _offerId) public payable returns (bool) {\r\n        require(offers[_offerId].offerer != 0x0000000000000000000000000000000000000000, \"Offerer must not be the burn address\");\r\n        require(offers[_offerId].state == State.Active, \"Offer must be active\");\r\n        offers[_offerId].state = State.Closed; \r\n        require(offers[_offerId].asker == msg.sender, \"Offer can only be accepted by intended recipient\");\r\n        require(offers[_offerId].askVal == msg.value, \"Must include required ETH amount\");\r\n        \r\n        for(uint i = 0; i < offers[_offerId].ask.length; i++) {\r\n            ERC721 con = ERC721(offers[_offerId].askContract[i]);\r\n            require(con.ownerOf(offers[_offerId].ask[i]) == msg.sender, \"User attempting to accept offer without owning the NFTs\");\r\n            require(con.isApprovedForAll(msg.sender, address(this)), \"User accepting offer has not approved the contract to send NFTs\");\r\n            con.safeTransferFrom(msg.sender, offers[_offerId].offerer, offers[_offerId].ask[i]);\r\n        }\r\n        for(uint i = 0; i < offers[_offerId].offer.length; i++) {\r\n            ERC721 con = ERC721(offers[_offerId].offerContract[i]); \r\n            require(con.ownerOf(offers[_offerId].offer[i]) == offers[_offerId].offerer, \"User attempting to accept offer that offerer cannot fulfill\");\r\n            require(con.isApprovedForAll(offers[_offerId].offerer, address(this)), \"Original offerer no longer has transfer enabled for this NFT contract\");\r\n            con.safeTransferFrom(offers[_offerId].offerer, msg.sender, offers[_offerId].offer[i]);\r\n        }\r\n\r\n        if(offers[_offerId].offerVal > 0) {\r\n            offers[_offerId].asker.transfer(offers[_offerId].offerVal);\r\n        }\r\n\r\n        if(offers[_offerId].askVal > 0) {\r\n            offers[_offerId].offerer.transfer(msg.value);\r\n        }\r\n\r\n        emit LogOfferAccepted(_offerId);\r\n    }\r\n\r\n    function cancelOffer(uint _offerId) public returns (bool) {\r\n        require(offers[_offerId].offerer == msg.sender || offers[_offerId].asker == msg.sender, \"Only the offerer can cancel an offer\");\r\n        require(offers[_offerId].state == State.Active, \"This offer is already closed\");\r\n        offers[_offerId].state = State.Closed;\r\n        offers[_offerId].offerer.transfer(offers[_offerId].offerVal);\r\n    }\r\n\r\n    function getOfferFromOffer(uint _offerId, uint _index) public view returns (uint) {\r\n        TradeOffer memory off = offers[_offerId];\r\n        return off.offer[_index];\r\n    }\r\n\r\n    function getOfferFromAsk(uint _offerId, uint _index) public view returns (uint) {\r\n        TradeOffer memory off = offers[_offerId];\r\n        return off.ask[_index];\r\n    }\r\n\r\n    function getOfferLengthFromOffer(uint _offerId) public view returns (uint) {\r\n        TradeOffer memory off = offers[_offerId];\r\n        return off.offerLength;\r\n    }\r\n\r\n    function getOfferLengthFromAsk(uint _offerId) public view returns (uint) {\r\n        TradeOffer memory off = offers[_offerId];\r\n        return off.askLength;\r\n    }\r\n\r\n    function getOfferState(uint _offerId) public view returns (bool) {\r\n        TradeOffer memory off = offers[_offerId];\r\n        if (off.state == State.Active) {\r\n            return true;\r\n        } else {\r\n            return false;\r\n        }\r\n    }\r\n\r\n    function getOfferAskVal(uint _offerId) public view returns (uint) {\r\n        TradeOffer memory off = offers[_offerId];\r\n        return off.askVal;\r\n    }\r\n\r\n     function getOfferOffVal(uint _offerId) public view returns (uint) {\r\n        TradeOffer memory off = offers[_offerId];\r\n        return off.offerVal;\r\n    }\r\n\r\n}",
  "sourcePath": "C:/Users/rober/Code/Consensys/barter/contracts/Swap.sol",
  "compiler": {
    "name": "solc",
    "version": "0.6.2+commit.bacdbe57.Emscripten.clang"
  },
  "schemaVersion": "3.2.5",
  "updatedAt": "2020-11-17T02:23:48.742Z",
  "networkType": "ethereum",
  "devdoc": {
    "methods": {}
  },
  "userdoc": {
    "methods": {}
  }
}