{
  "contractName": "Swap",
  "abi": [
    {
      "inputs": [],
      "stateMutability": "nonpayable",
      "type": "constructor"
    },
    {
      "anonymous": false,
      "inputs": [
        {
          "indexed": false,
          "internalType": "address",
          "name": "contractAddressApproved",
          "type": "address"
        }
      ],
      "name": "LogNFTApproval",
      "type": "event"
    },
    {
      "anonymous": false,
      "inputs": [
        {
          "indexed": false,
          "internalType": "address",
          "name": "contractAddressRemoved",
          "type": "address"
        }
      ],
      "name": "LogNFTRemoval",
      "type": "event"
    },
    {
      "anonymous": false,
      "inputs": [
        {
          "indexed": false,
          "internalType": "uint256",
          "name": "offerAcceptedId",
          "type": "uint256"
        }
      ],
      "name": "LogOfferAccepted",
      "type": "event"
    },
    {
      "anonymous": false,
      "inputs": [
        {
          "indexed": false,
          "internalType": "uint256",
          "name": "offerAddedId",
          "type": "uint256"
        }
      ],
      "name": "LogOfferAdded",
      "type": "event"
    },
    {
      "inputs": [
        {
          "internalType": "address",
          "name": "",
          "type": "address"
        }
      ],
      "name": "approvedERC721",
      "outputs": [
        {
          "internalType": "bool",
          "name": "",
          "type": "bool"
        }
      ],
      "stateMutability": "view",
      "type": "function",
      "constant": true
    },
    {
      "inputs": [],
      "name": "offerCount",
      "outputs": [
        {
          "internalType": "uint256",
          "name": "",
          "type": "uint256"
        }
      ],
      "stateMutability": "view",
      "type": "function",
      "constant": true
    },
    {
      "inputs": [
        {
          "internalType": "address",
          "name": "",
          "type": "address"
        }
      ],
      "name": "offerCountByAddress",
      "outputs": [
        {
          "internalType": "uint256",
          "name": "",
          "type": "uint256"
        }
      ],
      "stateMutability": "view",
      "type": "function",
      "constant": true
    },
    {
      "inputs": [
        {
          "internalType": "uint256",
          "name": "",
          "type": "uint256"
        }
      ],
      "name": "offers",
      "outputs": [
        {
          "internalType": "address payable",
          "name": "offerer",
          "type": "address"
        },
        {
          "internalType": "address payable",
          "name": "asker",
          "type": "address"
        },
        {
          "internalType": "uint256",
          "name": "offerLength",
          "type": "uint256"
        },
        {
          "internalType": "uint256",
          "name": "askLength",
          "type": "uint256"
        },
        {
          "internalType": "uint256",
          "name": "offerVal",
          "type": "uint256"
        },
        {
          "internalType": "uint256",
          "name": "askVal",
          "type": "uint256"
        },
        {
          "internalType": "enum Swap.State",
          "name": "state",
          "type": "uint8"
        }
      ],
      "stateMutability": "view",
      "type": "function",
      "constant": true
    },
    {
      "inputs": [
        {
          "internalType": "address",
          "name": "",
          "type": "address"
        },
        {
          "internalType": "uint256",
          "name": "",
          "type": "uint256"
        }
      ],
      "name": "offersByAddress",
      "outputs": [
        {
          "internalType": "uint256",
          "name": "",
          "type": "uint256"
        }
      ],
      "stateMutability": "view",
      "type": "function",
      "constant": true
    },
    {
      "inputs": [
        {
          "internalType": "address",
          "name": "",
          "type": "address"
        },
        {
          "internalType": "uint256",
          "name": "",
          "type": "uint256"
        }
      ],
      "name": "offersCreatedByAddress",
      "outputs": [
        {
          "internalType": "uint256",
          "name": "",
          "type": "uint256"
        }
      ],
      "stateMutability": "view",
      "type": "function",
      "constant": true
    },
    {
      "inputs": [
        {
          "internalType": "address",
          "name": "",
          "type": "address"
        }
      ],
      "name": "offersCreatedCountByAddress",
      "outputs": [
        {
          "internalType": "uint256",
          "name": "",
          "type": "uint256"
        }
      ],
      "stateMutability": "view",
      "type": "function",
      "constant": true
    },
    {
      "inputs": [],
      "name": "owner",
      "outputs": [
        {
          "internalType": "address",
          "name": "",
          "type": "address"
        }
      ],
      "stateMutability": "view",
      "type": "function",
      "constant": true
    },
    {
      "inputs": [],
      "name": "stopped",
      "outputs": [
        {
          "internalType": "bool",
          "name": "",
          "type": "bool"
        }
      ],
      "stateMutability": "view",
      "type": "function",
      "constant": true
    },
    {
      "inputs": [
        {
          "internalType": "address",
          "name": "_NFTContract",
          "type": "address"
        }
      ],
      "name": "approveNFT",
      "outputs": [],
      "stateMutability": "nonpayable",
      "type": "function"
    },
    {
      "inputs": [
        {
          "internalType": "address",
          "name": "_NFTContract",
          "type": "address"
        }
      ],
      "name": "removeNFT",
      "outputs": [],
      "stateMutability": "nonpayable",
      "type": "function"
    },
    {
      "inputs": [
        {
          "internalType": "bool",
          "name": "_stopped",
          "type": "bool"
        }
      ],
      "name": "setStopped",
      "outputs": [],
      "stateMutability": "nonpayable",
      "type": "function"
    },
    {
      "inputs": [
        {
          "internalType": "uint256[]",
          "name": "_offer",
          "type": "uint256[]"
        },
        {
          "internalType": "address[]",
          "name": "_offerContract",
          "type": "address[]"
        },
        {
          "internalType": "uint256[]",
          "name": "_ask",
          "type": "uint256[]"
        },
        {
          "internalType": "address[]",
          "name": "_askContract",
          "type": "address[]"
        },
        {
          "internalType": "uint256",
          "name": "_offerVal",
          "type": "uint256"
        },
        {
          "internalType": "uint256",
          "name": "_askVal",
          "type": "uint256"
        },
        {
          "internalType": "address payable",
          "name": "_targetAddress",
          "type": "address"
        }
      ],
      "name": "addOffer",
      "outputs": [
        {
          "internalType": "bool",
          "name": "",
          "type": "bool"
        }
      ],
      "stateMutability": "payable",
      "type": "function",
      "payable": true
    },
    {
      "inputs": [
        {
          "internalType": "uint256",
          "name": "_offerId",
          "type": "uint256"
        }
      ],
      "name": "acceptOffer",
      "outputs": [
        {
          "internalType": "bool",
          "name": "",
          "type": "bool"
        }
      ],
      "stateMutability": "payable",
      "type": "function",
      "payable": true
    },
    {
      "inputs": [
        {
          "internalType": "uint256",
          "name": "_offerId",
          "type": "uint256"
        }
      ],
      "name": "cancelOffer",
      "outputs": [
        {
          "internalType": "bool",
          "name": "",
          "type": "bool"
        }
      ],
      "stateMutability": "nonpayable",
      "type": "function"
    },
    {
      "inputs": [
        {
          "internalType": "uint256",
          "name": "_offerId",
          "type": "uint256"
        },
        {
          "internalType": "uint256",
          "name": "_index",
          "type": "uint256"
        }
      ],
      "name": "getOfferFromOffer",
      "outputs": [
        {
          "internalType": "uint256",
          "name": "",
          "type": "uint256"
        }
      ],
      "stateMutability": "view",
      "type": "function",
      "constant": true
    },
    {
      "inputs": [
        {
          "internalType": "uint256",
          "name": "_offerId",
          "type": "uint256"
        },
        {
          "internalType": "uint256",
          "name": "_index",
          "type": "uint256"
        }
      ],
      "name": "getOfferFromAsk",
      "outputs": [
        {
          "internalType": "uint256",
          "name": "",
          "type": "uint256"
        }
      ],
      "stateMutability": "view",
      "type": "function",
      "constant": true
    },
    {
      "inputs": [
        {
          "internalType": "uint256",
          "name": "_offerId",
          "type": "uint256"
        }
      ],
      "name": "getOfferLengthFromOffer",
      "outputs": [
        {
          "internalType": "uint256",
          "name": "",
          "type": "uint256"
        }
      ],
      "stateMutability": "view",
      "type": "function",
      "constant": true
    },
    {
      "inputs": [
        {
          "internalType": "uint256",
          "name": "_offerId",
          "type": "uint256"
        }
      ],
      "name": "getOfferLengthFromAsk",
      "outputs": [
        {
          "internalType": "uint256",
          "name": "",
          "type": "uint256"
        }
      ],
      "stateMutability": "view",
      "type": "function",
      "constant": true
    },
    {
      "inputs": [
        {
          "internalType": "uint256",
          "name": "_offerId",
          "type": "uint256"
        }
      ],
      "name": "getOfferState",
      "outputs": [
        {
          "internalType": "bool",
          "name": "",
          "type": "bool"
        }
      ],
      "stateMutability": "view",
      "type": "function",
      "constant": true
    },
    {
      "inputs": [
        {
          "internalType": "uint256",
          "name": "_offerId",
          "type": "uint256"
        }
      ],
      "name": "getOfferAskVal",
      "outputs": [
        {
          "internalType": "uint256",
          "name": "",
          "type": "uint256"
        }
      ],
      "stateMutability": "view",
      "type": "function",
      "constant": true
    },
    {
      "inputs": [
        {
          "internalType": "uint256",
          "name": "_offerId",
          "type": "uint256"
        }
      ],
      "name": "getOfferOffVal",
      "outputs": [
        {
          "internalType": "uint256",
          "name": "",
          "type": "uint256"
        }
      ],
      "stateMutability": "view",
      "type": "function",
      "constant": true
    }
  ],
  "bytecode": "0x60806040526000600260006101000a81548160ff02191690831515021790555034801561002b57600080fd5b50336000806101000a81548173ffffffffffffffffffffffffffffffffffffffff021916908373ffffffffffffffffffffffffffffffffffffffff16021790555060006001819055506141db806100836000396000f3fe6080604052600436106101355760003560e01c806375f12b21116100ab578063c49e5b5e1161006f578063c49e5b5e1461071c578063c815729d1461076f578063d34dbfe0146107b5578063d50e829e14610804578063ee9ee61f14610841578063ef706adf14610b0157610135565b806375f12b21146104f95780638a72ea6a146105285780638da5cb5b14610607578063986a25881461065e578063ba1c4072146106c357610135565b806323540450116100fd57806323540450146102c55780633505792e146103145780633ee037e71461036d57806350d72bd3146103dc578063517a72cf1461042b5780636656d7361461049057610135565b80630ed642d01461013a5780631115c24d1461018b57806311e9a95e146101b657806317cc54f7146102075780632240ba7714610256575b600080fd5b34801561014657600080fd5b506101896004803603602081101561015d57600080fd5b81019080803573ffffffffffffffffffffffffffffffffffffffff169060200190929190505050610b54565b005b34801561019757600080fd5b506101a0610c6d565b6040518082815260200191505060405180910390f35b3480156101c257600080fd5b50610205600480360360208110156101d957600080fd5b81019080803573ffffffffffffffffffffffffffffffffffffffff169060200190929190505050610c73565b005b34801561021357600080fd5b506102406004803603602081101561022a57600080fd5b8101908080359060200190929190505050610d8c565b6040518082815260200191505060405180910390f35b34801561026257600080fd5b506102af6004803603604081101561027957600080fd5b81019080803573ffffffffffffffffffffffffffffffffffffffff16906020019092919080359060200190929190505050611091565b6040518082815260200191505060405180910390f35b3480156102d157600080fd5b506102fe600480360360208110156102e857600080fd5b81019080803590602001909291905050506110bf565b6040518082815260200191505060405180910390f35b34801561032057600080fd5b506103576004803603604081101561033757600080fd5b8101908080359060200190929190803590602001909291905050506113c4565b6040518082815260200191505060405180910390f35b34801561037957600080fd5b506103c66004803603604081101561039057600080fd5b81019080803573ffffffffffffffffffffffffffffffffffffffff169060200190929190803590602001909291905050506116dd565b6040518082815260200191505060405180910390f35b3480156103e857600080fd5b50610415600480360360208110156103ff57600080fd5b810190808035906020019092919050505061170b565b6040518082815260200191505060405180910390f35b34801561043757600080fd5b5061047a6004803603602081101561044e57600080fd5b81019080803573ffffffffffffffffffffffffffffffffffffffff169060200190929190505050611a11565b6040518082815260200191505060405180910390f35b34801561049c57600080fd5b506104df600480360360208110156104b357600080fd5b81019080803573ffffffffffffffffffffffffffffffffffffffff169060200190929190505050611a29565b604051808215151515815260200191505060405180910390f35b34801561050557600080fd5b5061050e611a49565b604051808215151515815260200191505060405180910390f35b34801561053457600080fd5b506105616004803603602081101561054b57600080fd5b8101908080359060200190929190505050611a5c565b604051808873ffffffffffffffffffffffffffffffffffffffff1673ffffffffffffffffffffffffffffffffffffffff1681526020018773ffffffffffffffffffffffffffffffffffffffff1673ffffffffffffffffffffffffffffffffffffffff1681526020018681526020018581526020018481526020018381526020018260018111156105ed57fe5b60ff16815260200197505050505050505060405180910390f35b34801561061357600080fd5b5061061c611aeb565b604051808273ffffffffffffffffffffffffffffffffffffffff1673ffffffffffffffffffffffffffffffffffffffff16815260200191505060405180910390f35b34801561066a57600080fd5b506106ad6004803603602081101561068157600080fd5b81019080803573ffffffffffffffffffffffffffffffffffffffff169060200190929190505050611b10565b6040518082815260200191505060405180910390f35b3480156106cf57600080fd5b50610706600480360360408110156106e657600080fd5b810190808035906020019092919080359060200190929190505050611b28565b6040518082815260200191505060405180910390f35b34801561072857600080fd5b506107556004803603602081101561073f57600080fd5b8101908080359060200190929190505050611e41565b604051808215151515815260200191505060405180910390f35b61079b6004803603602081101561078557600080fd5b8101908080359060200190929190505050612172565b604051808215151515815260200191505060405180910390f35b3480156107c157600080fd5b506107ee600480360360208110156107d857600080fd5b8101908080359060200190929190505050612ed8565b6040518082815260200191505060405180910390f35b34801561081057600080fd5b5061083f6004803603602081101561082757600080fd5b810190808035151590602001909291905050506131de565b005b610ae7600480360360e081101561085757600080fd5b810190808035906020019064010000000081111561087457600080fd5b82018360208201111561088657600080fd5b803590602001918460208302840111640100000000831117156108a857600080fd5b919080806020026020016040519081016040528093929190818152602001838360200280828437600081840152601f19601f8201169050808301925050505050505091929192908035906020019064010000000081111561090857600080fd5b82018360208201111561091a57600080fd5b8035906020019184602083028401116401000000008311171561093c57600080fd5b919080806020026020016040519081016040528093929190818152602001838360200280828437600081840152601f19601f8201169050808301925050505050505091929192908035906020019064010000000081111561099c57600080fd5b8201836020820111156109ae57600080fd5b803590602001918460208302840111640100000000831117156109d057600080fd5b919080806020026020016040519081016040528093929190818152602001838360200280828437600081840152601f19601f82011690508083019250505050505050919291929080359060200190640100000000811115610a3057600080fd5b820183602082011115610a4257600080fd5b80359060200191846020830284011164010000000083111715610a6457600080fd5b919080806020026020016040519081016040528093929190818152602001838360200280828437600081840152601f19601f8201169050808301925050505050505091929192908035906020019092919080359060200190929190803573ffffffffffffffffffffffffffffffffffffffff169060200190929190505050613256565b604051808215151515815260200191505060405180910390f35b348015610b0d57600080fd5b50610b3a60048036036020811015610b2457600080fd5b8101908080359060200190929190505050613abf565b604051808215151515815260200191505060405180910390f35b336000809054906101000a900473ffffffffffffffffffffffffffffffffffffffff1673ffffffffffffffffffffffffffffffffffffffff168173ffffffffffffffffffffffffffffffffffffffff1614610bae57600080fd5b7febfe7b89bc8879c540005795f5110bc5f731b2c00294c47b1247f41bcb1bd42782604051808273ffffffffffffffffffffffffffffffffffffffff1673ffffffffffffffffffffffffffffffffffffffff16815260200191505060405180910390a16000600360008473ffffffffffffffffffffffffffffffffffffffff1673ffffffffffffffffffffffffffffffffffffffff16815260200190815260200160002060006101000a81548160ff0219169083151502179055505050565b60015481565b336000809054906101000a900473ffffffffffffffffffffffffffffffffffffffff1673ffffffffffffffffffffffffffffffffffffffff168173ffffffffffffffffffffffffffffffffffffffff1614610ccd57600080fd5b7f51a951a433bd62c9bd3d80facce59480479f8fcf925c79971019eb97f628585082604051808273ffffffffffffffffffffffffffffffffffffffff1673ffffffffffffffffffffffffffffffffffffffff16815260200191505060405180910390a16001600360008473ffffffffffffffffffffffffffffffffffffffff1673ffffffffffffffffffffffffffffffffffffffff16815260200190815260200160002060006101000a81548160ff0219169083151502179055505050565b6000610d96613d66565b60046000848152602001908152602001600020604051806101600160405290816000820160009054906101000a900473ffffffffffffffffffffffffffffffffffffffff1673ffffffffffffffffffffffffffffffffffffffff1673ffffffffffffffffffffffffffffffffffffffff1681526020016001820160009054906101000a900473ffffffffffffffffffffffffffffffffffffffff1673ffffffffffffffffffffffffffffffffffffffff1673ffffffffffffffffffffffffffffffffffffffff16815260200160028201805480602002602001604051908101604052809291908181526020018280548015610eb057602002820191906000526020600020905b815481526020019060010190808311610e9c575b5050505050815260200160038201805480602002602001604051908101604052809291908181526020018280548015610f0857602002820191906000526020600020905b815481526020019060010190808311610ef4575b5050505050815260200160048201805480602002602001604051908101604052809291908181526020018280548015610f9657602002820191906000526020600020905b8160009054906101000a900473ffffffffffffffffffffffffffffffffffffffff1673ffffffffffffffffffffffffffffffffffffffff1681526020019060010190808311610f4c575b505050505081526020016005820180548060200260200160405190810160405280929190818152602001828054801561102457602002820191906000526020600020905b8160009054906101000a900473ffffffffffffffffffffffffffffffffffffffff1673ffffffffffffffffffffffffffffffffffffffff1681526020019060010190808311610fda575b5050505050815260200160068201548152602001600782015481526020016008820154815260200160098201548152602001600a820160009054906101000a900460ff16600181111561107357fe5b600181111561107e57fe5b8152505090508060c00151915050919050565b600760205281600052604060002081815481106110aa57fe5b90600052602060002001600091509150505481565b60006110c9613d66565b60046000848152602001908152602001600020604051806101600160405290816000820160009054906101000a900473ffffffffffffffffffffffffffffffffffffffff1673ffffffffffffffffffffffffffffffffffffffff1673ffffffffffffffffffffffffffffffffffffffff1681526020016001820160009054906101000a900473ffffffffffffffffffffffffffffffffffffffff1673ffffffffffffffffffffffffffffffffffffffff1673ffffffffffffffffffffffffffffffffffffffff168152602001600282018054806020026020016040519081016040528092919081815260200182805480156111e357602002820191906000526020600020905b8154815260200190600101908083116111cf575b505050505081526020016003820180548060200260200160405190810160405280929190818152602001828054801561123b57602002820191906000526020600020905b815481526020019060010190808311611227575b50505050508152602001600482018054806020026020016040519081016040528092919081815260200182805480156112c957602002820191906000526020600020905b8160009054906101000a900473ffffffffffffffffffffffffffffffffffffffff1673ffffffffffffffffffffffffffffffffffffffff168152602001906001019080831161127f575b505050505081526020016005820180548060200260200160405190810160405280929190818152602001828054801561135757602002820191906000526020600020905b8160009054906101000a900473ffffffffffffffffffffffffffffffffffffffff1673ffffffffffffffffffffffffffffffffffffffff168152602001906001019080831161130d575b5050505050815260200160068201548152602001600782015481526020016008820154815260200160098201548152602001600a820160009054906101000a900460ff1660018111156113a657fe5b60018111156113b157fe5b8152505090508060e00151915050919050565b60006113ce613d66565b60046000858152602001908152602001600020604051806101600160405290816000820160009054906101000a900473ffffffffffffffffffffffffffffffffffffffff1673ffffffffffffffffffffffffffffffffffffffff1673ffffffffffffffffffffffffffffffffffffffff1681526020016001820160009054906101000a900473ffffffffffffffffffffffffffffffffffffffff1673ffffffffffffffffffffffffffffffffffffffff1673ffffffffffffffffffffffffffffffffffffffff168152602001600282018054806020026020016040519081016040528092919081815260200182805480156114e857602002820191906000526020600020905b8154815260200190600101908083116114d4575b505050505081526020016003820180548060200260200160405190810160405280929190818152602001828054801561154057602002820191906000526020600020905b81548152602001906001019080831161152c575b50505050508152602001600482018054806020026020016040519081016040528092919081815260200182805480156115ce57602002820191906000526020600020905b8160009054906101000a900473ffffffffffffffffffffffffffffffffffffffff1673ffffffffffffffffffffffffffffffffffffffff1681526020019060010190808311611584575b505050505081526020016005820180548060200260200160405190810160405280929190818152602001828054801561165c57602002820191906000526020600020905b8160009054906101000a900473ffffffffffffffffffffffffffffffffffffffff1673ffffffffffffffffffffffffffffffffffffffff1681526020019060010190808311611612575b5050505050815260200160068201548152602001600782015481526020016008820154815260200160098201548152602001600a820160009054906101000a900460ff1660018111156116ab57fe5b60018111156116b657fe5b815250509050806040015183815181106116cc57fe5b602002602001015191505092915050565b600560205281600052604060002081815481106116f657fe5b90600052602060002001600091509150505481565b6000611715613d66565b60046000848152602001908152602001600020604051806101600160405290816000820160009054906101000a900473ffffffffffffffffffffffffffffffffffffffff1673ffffffffffffffffffffffffffffffffffffffff1673ffffffffffffffffffffffffffffffffffffffff1681526020016001820160009054906101000a900473ffffffffffffffffffffffffffffffffffffffff1673ffffffffffffffffffffffffffffffffffffffff1673ffffffffffffffffffffffffffffffffffffffff1681526020016002820180548060200260200160405190810160405280929190818152602001828054801561182f57602002820191906000526020600020905b81548152602001906001019080831161181b575b505050505081526020016003820180548060200260200160405190810160405280929190818152602001828054801561188757602002820191906000526020600020905b815481526020019060010190808311611873575b505050505081526020016004820180548060200260200160405190810160405280929190818152602001828054801561191557602002820191906000526020600020905b8160009054906101000a900473ffffffffffffffffffffffffffffffffffffffff1673ffffffffffffffffffffffffffffffffffffffff16815260200190600101908083116118cb575b50505050508152602001600582018054806020026020016040519081016040528092919081815260200182805480156119a357602002820191906000526020600020905b8160009054906101000a900473ffffffffffffffffffffffffffffffffffffffff1673ffffffffffffffffffffffffffffffffffffffff1681526020019060010190808311611959575b5050505050815260200160068201548152602001600782015481526020016008820154815260200160098201548152602001600a820160009054906101000a900460ff1660018111156119f257fe5b60018111156119fd57fe5b815250509050806101000151915050919050565b60086020528060005260406000206000915090505481565b60036020528060005260406000206000915054906101000a900460ff1681565b600260009054906101000a900460ff1681565b60046020528060005260406000206000915090508060000160009054906101000a900473ffffffffffffffffffffffffffffffffffffffff16908060010160009054906101000a900473ffffffffffffffffffffffffffffffffffffffff169080600601549080600701549080600801549080600901549080600a0160009054906101000a900460ff16905087565b6000809054906101000a900473ffffffffffffffffffffffffffffffffffffffff1681565b60066020528060005260406000206000915090505481565b6000611b32613d66565b60046000858152602001908152602001600020604051806101600160405290816000820160009054906101000a900473ffffffffffffffffffffffffffffffffffffffff1673ffffffffffffffffffffffffffffffffffffffff1673ffffffffffffffffffffffffffffffffffffffff1681526020016001820160009054906101000a900473ffffffffffffffffffffffffffffffffffffffff1673ffffffffffffffffffffffffffffffffffffffff1673ffffffffffffffffffffffffffffffffffffffff16815260200160028201805480602002602001604051908101604052809291908181526020018280548015611c4c57602002820191906000526020600020905b815481526020019060010190808311611c38575b5050505050815260200160038201805480602002602001604051908101604052809291908181526020018280548015611ca457602002820191906000526020600020905b815481526020019060010190808311611c90575b5050505050815260200160048201805480602002602001604051908101604052809291908181526020018280548015611d3257602002820191906000526020600020905b8160009054906101000a900473ffffffffffffffffffffffffffffffffffffffff1673ffffffffffffffffffffffffffffffffffffffff1681526020019060010190808311611ce8575b5050505050815260200160058201805480602002602001604051908101604052809291908181526020018280548015611dc057602002820191906000526020600020905b8160009054906101000a900473ffffffffffffffffffffffffffffffffffffffff1673ffffffffffffffffffffffffffffffffffffffff1681526020019060010190808311611d76575b5050505050815260200160068201548152602001600782015481526020016008820154815260200160098201548152602001600a820160009054906101000a900460ff166001811115611e0f57fe5b6001811115611e1a57fe5b81525050905080606001518381518110611e3057fe5b602002602001015191505092915050565b6000611e4b613d66565b60046000848152602001908152602001600020604051806101600160405290816000820160009054906101000a900473ffffffffffffffffffffffffffffffffffffffff1673ffffffffffffffffffffffffffffffffffffffff1673ffffffffffffffffffffffffffffffffffffffff1681526020016001820160009054906101000a900473ffffffffffffffffffffffffffffffffffffffff1673ffffffffffffffffffffffffffffffffffffffff1673ffffffffffffffffffffffffffffffffffffffff16815260200160028201805480602002602001604051908101604052809291908181526020018280548015611f6557602002820191906000526020600020905b815481526020019060010190808311611f51575b5050505050815260200160038201805480602002602001604051908101604052809291908181526020018280548015611fbd57602002820191906000526020600020905b815481526020019060010190808311611fa9575b505050505081526020016004820180548060200260200160405190810160405280929190818152602001828054801561204b57602002820191906000526020600020905b8160009054906101000a900473ffffffffffffffffffffffffffffffffffffffff1673ffffffffffffffffffffffffffffffffffffffff1681526020019060010190808311612001575b50505050508152602001600582018054806020026020016040519081016040528092919081815260200182805480156120d957602002820191906000526020600020905b8160009054906101000a900473ffffffffffffffffffffffffffffffffffffffff1673ffffffffffffffffffffffffffffffffffffffff168152602001906001019080831161208f575b5050505050815260200160068201548152602001600782015481526020016008820154815260200160098201548152602001600a820160009054906101000a900460ff16600181111561212857fe5b600181111561213357fe5b8152505090506000600181111561214657fe5b816101400151600181111561215757fe5b141561216757600191505061216d565b60009150505b919050565b6000600260009054906101000a900460ff161561218e57600080fd5b600073ffffffffffffffffffffffffffffffffffffffff166004600084815260200190815260200160002060000160009054906101000a900473ffffffffffffffffffffffffffffffffffffffff1673ffffffffffffffffffffffffffffffffffffffff16141561224a576040517f08c379a000000000000000000000000000000000000000000000000000000000815260040180806020018281038252602481526020018061401f6024913960400191505060405180910390fd5b6000600181111561225757fe5b60046000848152602001908152602001600020600a0160009054906101000a900460ff16600181111561228657fe5b146122f9576040517f08c379a00000000000000000000000000000000000000000000000000000000081526004018080602001828103825260148152602001807f4f66666572206d7573742062652061637469766500000000000000000000000081525060200191505060405180910390fd5b600160046000848152602001908152602001600020600a0160006101000a81548160ff0219169083600181111561232c57fe5b02179055503373ffffffffffffffffffffffffffffffffffffffff166004600084815260200190815260200160002060010160009054906101000a900473ffffffffffffffffffffffffffffffffffffffff1673ffffffffffffffffffffffffffffffffffffffff16146123eb576040517f08c379a0000000000000000000000000000000000000000000000000000000008152600401808060200182810382526030815260200180613f696030913960400191505060405180910390fd5b34600460008481526020019081526020016000206009015414612476576040517f08c379a00000000000000000000000000000000000000000000000000000000081526004018080602001828103825260208152602001807f4d75737420696e636c7564652072657175697265642045544820616d6f756e7481525060200191505060405180910390fd5b60008090505b60046000848152602001908152602001600020600301805490508110156128aa5760006004600085815260200190815260200160002060050182815481106124c057fe5b9060005260206000200160009054906101000a900473ffffffffffffffffffffffffffffffffffffffff1690503373ffffffffffffffffffffffffffffffffffffffff168173ffffffffffffffffffffffffffffffffffffffff16636352211e60046000888152602001908152602001600020600301858154811061254157fe5b90600052602060002001546040518263ffffffff1660e01b81526004018082815260200191505060206040518083038186803b15801561258057600080fd5b505afa158015612594573d6000803e3d6000fd5b505050506040513d60208110156125aa57600080fd5b810190808051906020019092919050505073ffffffffffffffffffffffffffffffffffffffff1614612627576040517f08c379a00000000000000000000000000000000000000000000000000000000081526004018080602001828103825260378152602001806140826037913960400191505060405180910390fd5b8073ffffffffffffffffffffffffffffffffffffffff1663e985e9c533306040518363ffffffff1660e01b8152600401808373ffffffffffffffffffffffffffffffffffffffff1673ffffffffffffffffffffffffffffffffffffffff1681526020018273ffffffffffffffffffffffffffffffffffffffff1673ffffffffffffffffffffffffffffffffffffffff1681526020019250505060206040518083038186803b1580156126d857600080fd5b505afa1580156126ec573d6000803e3d6000fd5b505050506040513d602081101561270257600080fd5b8101908080519060200190929190505050612768576040517f08c379a000000000000000000000000000000000000000000000000000000000815260040180806020018281038252603f815260200180614043603f913960400191505060405180910390fd5b8073ffffffffffffffffffffffffffffffffffffffff166342842e0e336004600088815260200190815260200160002060000160009054906101000a900473ffffffffffffffffffffffffffffffffffffffff166004600089815260200190815260200160002060030186815481106127dd57fe5b90600052602060002001546040518463ffffffff1660e01b8152600401808473ffffffffffffffffffffffffffffffffffffffff1673ffffffffffffffffffffffffffffffffffffffff1681526020018373ffffffffffffffffffffffffffffffffffffffff1673ffffffffffffffffffffffffffffffffffffffff1681526020018281526020019350505050600060405180830381600087803b15801561288457600080fd5b505af1158015612898573d6000803e3d6000fd5b5050505050808060010191505061247c565b5060008090505b6004600084815260200190815260200160002060020180549050811015612d4b5760006004600085815260200190815260200160002060040182815481106128f557fe5b9060005260206000200160009054906101000a900473ffffffffffffffffffffffffffffffffffffffff1690506004600085815260200190815260200160002060000160009054906101000a900473ffffffffffffffffffffffffffffffffffffffff1673ffffffffffffffffffffffffffffffffffffffff168173ffffffffffffffffffffffffffffffffffffffff16636352211e6004600088815260200190815260200160002060020185815481106129ac57fe5b90600052602060002001546040518263ffffffff1660e01b81526004018082815260200191505060206040518083038186803b1580156129eb57600080fd5b505afa1580156129ff573d6000803e3d6000fd5b505050506040513d6020811015612a1557600080fd5b810190808051906020019092919050505073ffffffffffffffffffffffffffffffffffffffff1614612a92576040517f08c379a000000000000000000000000000000000000000000000000000000000815260040180806020018281038252603b8152602001806140b9603b913960400191505060405180910390fd5b8073ffffffffffffffffffffffffffffffffffffffff1663e985e9c56004600087815260200190815260200160002060000160009054906101000a900473ffffffffffffffffffffffffffffffffffffffff16306040518363ffffffff1660e01b8152600401808373ffffffffffffffffffffffffffffffffffffffff1673ffffffffffffffffffffffffffffffffffffffff1681526020018273ffffffffffffffffffffffffffffffffffffffff1673ffffffffffffffffffffffffffffffffffffffff1681526020019250505060206040518083038186803b158015612b7957600080fd5b505afa158015612b8d573d6000803e3d6000fd5b505050506040513d6020811015612ba357600080fd5b8101908080519060200190929190505050612c09576040517f08c379a00000000000000000000000000000000000000000000000000000000081526004018080602001828103825260458152602001806140f46045913960600191505060405180910390fd5b8073ffffffffffffffffffffffffffffffffffffffff166342842e0e6004600087815260200190815260200160002060000160009054906101000a900473ffffffffffffffffffffffffffffffffffffffff1633600460008981526020019081526020016000206002018681548110612c7e57fe5b90600052602060002001546040518463ffffffff1660e01b8152600401808473ffffffffffffffffffffffffffffffffffffffff1673ffffffffffffffffffffffffffffffffffffffff1681526020018373ffffffffffffffffffffffffffffffffffffffff1673ffffffffffffffffffffffffffffffffffffffff1681526020018281526020019350505050600060405180830381600087803b158015612d2557600080fd5b505af1158015612d39573d6000803e3d6000fd5b505050505080806001019150506128b1565b50600060046000848152602001908152602001600020600801541115612dff576004600083815260200190815260200160002060010160009054906101000a900473ffffffffffffffffffffffffffffffffffffffff1673ffffffffffffffffffffffffffffffffffffffff166108fc60046000858152602001908152602001600020600801549081150290604051600060405180830381858888f19350505050158015612dfd573d6000803e3d6000fd5b505b600060046000848152602001908152602001600020600901541115612e9c576004600083815260200190815260200160002060000160009054906101000a900473ffffffffffffffffffffffffffffffffffffffff1673ffffffffffffffffffffffffffffffffffffffff166108fc349081150290604051600060405180830381858888f19350505050158015612e9a573d6000803e3d6000fd5b505b7f1ddf9505f5dfbca42bfce911805d7dec126e10c11846607a242b0914dc186d17826040518082815260200191505060405180910390a1919050565b6000612ee2613d66565b60046000848152602001908152602001600020604051806101600160405290816000820160009054906101000a900473ffffffffffffffffffffffffffffffffffffffff1673ffffffffffffffffffffffffffffffffffffffff1673ffffffffffffffffffffffffffffffffffffffff1681526020016001820160009054906101000a900473ffffffffffffffffffffffffffffffffffffffff1673ffffffffffffffffffffffffffffffffffffffff1673ffffffffffffffffffffffffffffffffffffffff16815260200160028201805480602002602001604051908101604052809291908181526020018280548015612ffc57602002820191906000526020600020905b815481526020019060010190808311612fe8575b505050505081526020016003820180548060200260200160405190810160405280929190818152602001828054801561305457602002820191906000526020600020905b815481526020019060010190808311613040575b50505050508152602001600482018054806020026020016040519081016040528092919081815260200182805480156130e257602002820191906000526020600020905b8160009054906101000a900473ffffffffffffffffffffffffffffffffffffffff1673ffffffffffffffffffffffffffffffffffffffff1681526020019060010190808311613098575b505050505081526020016005820180548060200260200160405190810160405280929190818152602001828054801561317057602002820191906000526020600020905b8160009054906101000a900473ffffffffffffffffffffffffffffffffffffffff1673ffffffffffffffffffffffffffffffffffffffff1681526020019060010190808311613126575b5050505050815260200160068201548152602001600782015481526020016008820154815260200160098201548152602001600a820160009054906101000a900460ff1660018111156131bf57fe5b60018111156131ca57fe5b815250509050806101200151915050919050565b336000809054906101000a900473ffffffffffffffffffffffffffffffffffffffff1673ffffffffffffffffffffffffffffffffffffffff168173ffffffffffffffffffffffffffffffffffffffff161461323857600080fd5b81600260006101000a81548160ff0219169083151502179055505050565b6000600260009054906101000a900460ff161561327257600080fd5b6001885110158061328557506001865110155b6132da576040517f08c379a0000000000000000000000000000000000000000000000000000000008152600401808060200182810382526023815260200180613f996023913960400191505060405180910390fd5b8651885114613334576040517f08c379a00000000000000000000000000000000000000000000000000000000081526004018080602001828103825260418152602001806141656041913960600191505060405180910390fd5b845186511461338e576040517f08c379a000000000000000000000000000000000000000000000000000000000815260040180806020018281038252603f815260200180613fbc603f913960400191505060405180910390fd5b3484146133e6576040517f08c379a000000000000000000000000000000000000000000000000000000000815260040180806020018281038252602c815260200180614139602c913960400191505060405180910390fd5b60008090505b885181101561369b57600088828151811061340357fe5b602002602001015190503373ffffffffffffffffffffffffffffffffffffffff168173ffffffffffffffffffffffffffffffffffffffff16636352211e8c858151811061344c57fe5b60200260200101516040518263ffffffff1660e01b81526004018082815260200191505060206040518083038186803b15801561348857600080fd5b505afa15801561349c573d6000803e3d6000fd5b505050506040513d60208110156134b257600080fd5b810190808051906020019092919050505073ffffffffffffffffffffffffffffffffffffffff161461354c576040517f08c379a00000000000000000000000000000000000000000000000000000000081526004018080602001828103825260188152602001807f4f66666572657220646f6573206e6f74206f776e204e4654000000000000000081525060200191505060405180910390fd5b8073ffffffffffffffffffffffffffffffffffffffff1663e985e9c533306040518363ffffffff1660e01b8152600401808373ffffffffffffffffffffffffffffffffffffffff1673ffffffffffffffffffffffffffffffffffffffff1681526020018273ffffffffffffffffffffffffffffffffffffffff1673ffffffffffffffffffffffffffffffffffffffff1681526020019250505060206040518083038186803b1580156135fd57600080fd5b505afa158015613611573d6000803e3d6000fd5b505050506040513d602081101561362757600080fd5b810190808051906020019092919050505061368d576040517f08c379a0000000000000000000000000000000000000000000000000000000008152600401808060200182810382526032815260200180613f376032913960400191505060405180910390fd5b5080806001019150506133ec565b507fc60c81367c6a883914e4be845cb4d925d275c8737771b1cae52fd40a6f377f346001546040518082815260200191505060405180910390a1600560008373ffffffffffffffffffffffffffffffffffffffff1673ffffffffffffffffffffffffffffffffffffffff16815260200190815260200160002060015490806001815401808255809150506001900390600052602060002001600090919091909150556001600660008473ffffffffffffffffffffffffffffffffffffffff1673ffffffffffffffffffffffffffffffffffffffff1681526020019081526020016000205401600660008473ffffffffffffffffffffffffffffffffffffffff1673ffffffffffffffffffffffffffffffffffffffff16815260200190815260200160002081905550600760003373ffffffffffffffffffffffffffffffffffffffff1673ffffffffffffffffffffffffffffffffffffffff16815260200190815260200160002060015490806001815401808255809150506001900390600052602060002001600090919091909150556001600860003373ffffffffffffffffffffffffffffffffffffffff1673ffffffffffffffffffffffffffffffffffffffff1681526020019081526020016000205401600860003373ffffffffffffffffffffffffffffffffffffffff1673ffffffffffffffffffffffffffffffffffffffff168152602001908152602001600020819055506040518061016001604052803373ffffffffffffffffffffffffffffffffffffffff1681526020018373ffffffffffffffffffffffffffffffffffffffff16815260200189815260200187815260200188815260200186815260200189518152602001875181526020018581526020018481526020016000600181111561393457fe5b81525060046000600154815260200190815260200160002060008201518160000160006101000a81548173ffffffffffffffffffffffffffffffffffffffff021916908373ffffffffffffffffffffffffffffffffffffffff16021790555060208201518160010160006101000a81548173ffffffffffffffffffffffffffffffffffffffff021916908373ffffffffffffffffffffffffffffffffffffffff16021790555060408201518160020190805190602001906139f6929190613df7565b506060820151816003019080519060200190613a13929190613df7565b506080820151816004019080519060200190613a30929190613e44565b5060a0820151816005019080519060200190613a4d929190613e44565b5060c0820151816006015560e082015181600701556101008201518160080155610120820151816009015561014082015181600a0160006101000a81548160ff02191690836001811115613a9d57fe5b0217905550905050600180540160018190555060019050979650505050505050565b60003373ffffffffffffffffffffffffffffffffffffffff166004600084815260200190815260200160002060000160009054906101000a900473ffffffffffffffffffffffffffffffffffffffff1673ffffffffffffffffffffffffffffffffffffffff161480613b9257503373ffffffffffffffffffffffffffffffffffffffff166004600084815260200190815260200160002060010160009054906101000a900473ffffffffffffffffffffffffffffffffffffffff1673ffffffffffffffffffffffffffffffffffffffff16145b613be7576040517f08c379a0000000000000000000000000000000000000000000000000000000008152600401808060200182810382526024815260200180613ffb6024913960400191505060405180910390fd5b60006001811115613bf457fe5b60046000848152602001908152602001600020600a0160009054906101000a900460ff166001811115613c2357fe5b14613c96576040517f08c379a000000000000000000000000000000000000000000000000000000000815260040180806020018281038252601c8152602001807f54686973206f6666657220697320616c726561647920636c6f7365640000000081525060200191505060405180910390fd5b600160046000848152602001908152602001600020600a0160006101000a81548160ff02191690836001811115613cc957fe5b02179055506004600083815260200190815260200160002060000160009054906101000a900473ffffffffffffffffffffffffffffffffffffffff1673ffffffffffffffffffffffffffffffffffffffff166108fc60046000858152602001908152602001600020600801549081150290604051600060405180830381858888f19350505050158015613d60573d6000803e3d6000fd5b50919050565b604051806101600160405280600073ffffffffffffffffffffffffffffffffffffffff168152602001600073ffffffffffffffffffffffffffffffffffffffff168152602001606081526020016060815260200160608152602001606081526020016000815260200160008152602001600081526020016000815260200160006001811115613df157fe5b81525090565b828054828255906000526020600020908101928215613e33579160200282015b82811115613e32578251825591602001919060010190613e17565b5b509050613e409190613ece565b5090565b828054828255906000526020600020908101928215613ebd579160200282015b82811115613ebc5782518260006101000a81548173ffffffffffffffffffffffffffffffffffffffff021916908373ffffffffffffffffffffffffffffffffffffffff16021790555091602001919060010190613e64565b5b509050613eca9190613ef3565b5090565b613ef091905b80821115613eec576000816000905550600101613ed4565b5090565b90565b613f3391905b80821115613f2f57600081816101000a81549073ffffffffffffffffffffffffffffffffffffffff021916905550600101613ef9565b5090565b9056fe4f66666572657220686173206e6f7420617070726f7665642074686520636f6e747261637420746f2073656e64204e4654734f666665722063616e206f6e6c7920626520616363657074656420627920696e74656e64656420726563697069656e744f66666572206d75737420696e636c756465206174206c65617374206f6e65204e46544e465420494473202861736b29206172726179206d757374206265207468652073616d652073697a652061732074686520636f6e74726163742061727261794f6e6c7920746865206f6666657265722063616e2063616e63656c20616e206f666665724f666665726572206d757374206e6f7420626520746865206275726e20616464726573735573657220616363657074696e67206f6666657220686173206e6f7420617070726f7665642074686520636f6e747261637420746f2073656e64204e4654735573657220617474656d7074696e6720746f20616363657074206f6666657220776974686f7574206f776e696e6720746865204e4654735573657220617474656d7074696e6720746f20616363657074206f666665722074686174206f6666657265722063616e6e6f742066756c66696c6c4f726967696e616c206f666665726572206e6f206c6f6e67657220686173207472616e7366657220656e61626c656420666f722074686973204e465420636f6e74726163744d75737420696e636c7564652045544820746f206d61746368206f6666657265642045544820616d6f756e744e46542049447320286f6666657229206172726179206d757374206265207468652073616d652073697a652061732074686520636f6e7472616374206172726179a2646970667358221220b681293f772ce1ebdf01fe7488b7138720bb5e48cd71fa5017609da0fc91ab9164736f6c63430006020033",
  "source": "pragma solidity ^0.6.0;\r\n\r\nimport \"../openzeppelin-contracts/contracts/token/ERC721/ERC721.sol\";\r\n\r\ncontract Swap {\r\n\r\n    address public owner;\r\n    uint public offerCount;\r\n    bool public stopped = false;\r\n\r\n    struct TradeOffer {\r\n        address payable offerer;\r\n        address payable asker;\r\n        uint[] offer;\r\n        uint[] ask;\r\n        address[] offerContract;\r\n        address[] askContract;\r\n        uint offerLength;\r\n        uint askLength;\r\n        uint offerVal;\r\n        uint askVal;\r\n        State state;\r\n    }\r\n\r\n    enum State {Active, Closed}\r\n    mapping(address => bool) public approvedERC721;\r\n    mapping(uint => TradeOffer) public offers;\r\n    mapping(address => uint[]) public offersByAddress; \r\n    mapping(address => uint) public offerCountByAddress;\r\n    mapping(address => uint[]) public offersCreatedByAddress; \r\n    mapping(address => uint) public offersCreatedCountByAddress;\r\n\r\n    event LogOfferAdded(uint offerAddedId);\r\n    event LogOfferAccepted(uint offerAcceptedId);\r\n    event LogNFTApproval(address contractAddressApproved);\r\n    event LogNFTRemoval(address contractAddressRemoved);\r\n\r\n\r\n    modifier onlyOwner (address _address) {require(_address == owner); _;}\r\n    modifier stopInEmergency {require(!stopped); _;}\r\n    modifier onlyInEmergency {require(stopped); _;}\r\n\r\n    constructor() public {\r\n       owner = msg.sender;\r\n       offerCount = 0;\r\n    }\r\n\r\n    function approveNFT(address _NFTContract) public onlyOwner(msg.sender) {\r\n        emit LogNFTApproval(_NFTContract);\r\n        approvedERC721[_NFTContract] = true;\r\n    }\r\n\r\n    function removeNFT(address _NFTContract) public onlyOwner(msg.sender) {\r\n        emit LogNFTRemoval(_NFTContract);\r\n        approvedERC721[_NFTContract] = false;\r\n    }\r\n\r\n    function setStopped(bool _stopped) public onlyOwner(msg.sender) {\r\n        stopped = _stopped;\r\n    }\r\n\r\n    function addOffer(uint[] memory _offer, address[] memory _offerContract\r\n                    , uint[] memory _ask, address[] memory _askContract\r\n                    , uint _offerVal, uint _askVal, address payable _targetAddress) \r\n                    public payable stopInEmergency() returns (bool) {\r\n\r\n        require(_offer.length >= 1 || _ask.length >= 1, \"Offer must include at least one NFT\");\r\n        require(_offer.length == _offerContract.length, \"NFT IDs (offer) array must be the same size as the contract array\");\r\n        require(_ask.length == _askContract.length, \"NFT IDs (ask) array must be the same size as the contract array\");\r\n        require(_offerVal == msg.value, \"Must include ETH to match offered ETH amount\");\r\n        for(uint i = 0; i < _offer.length; i++) {\r\n            ERC721 con = ERC721(_offerContract[i]);\r\n            require(con.ownerOf(_offer[i]) == msg.sender, \"Offerer does not own NFT\");\r\n            require(con.isApprovedForAll(msg.sender, address(this)), \"Offerer has not approved the contract to send NFTs\");\r\n        }\r\n\r\n        emit LogOfferAdded(offerCount);\r\n        offersByAddress[_targetAddress].push(offerCount);\r\n        offerCountByAddress[_targetAddress] = offerCountByAddress[_targetAddress]+1;\r\n        offersCreatedByAddress[msg.sender].push(offerCount);\r\n        offersCreatedCountByAddress[msg.sender] = offersCreatedCountByAddress[msg.sender]+1;\r\n        offers[offerCount] = TradeOffer({offerer: msg.sender\r\n            , asker: _targetAddress\r\n            , offer: _offer\r\n            , offerContract:_offerContract\r\n            , ask: _ask\r\n            , askContract:_askContract\r\n            , offerLength:_offer.length\r\n            , askLength:_ask.length\r\n            , offerVal: _offerVal\r\n            , askVal:_askVal\r\n            , state: State.Active});\r\n        offerCount = offerCount + 1;\r\n        \r\n        return true;\r\n    }\r\n\r\n    function acceptOffer(uint _offerId) public payable stopInEmergency() returns (bool) {\r\n        require(offers[_offerId].offerer != 0x0000000000000000000000000000000000000000, \"Offerer must not be the burn address\");\r\n        require(offers[_offerId].state == State.Active, \"Offer must be active\");\r\n        offers[_offerId].state = State.Closed; \r\n        require(offers[_offerId].asker == msg.sender, \"Offer can only be accepted by intended recipient\");\r\n        require(offers[_offerId].askVal == msg.value, \"Must include required ETH amount\");\r\n        \r\n        for(uint i = 0; i < offers[_offerId].ask.length; i++) {\r\n            ERC721 con = ERC721(offers[_offerId].askContract[i]);\r\n            require(con.ownerOf(offers[_offerId].ask[i]) == msg.sender, \"User attempting to accept offer without owning the NFTs\");\r\n            require(con.isApprovedForAll(msg.sender, address(this)), \"User accepting offer has not approved the contract to send NFTs\");\r\n            con.safeTransferFrom(msg.sender, offers[_offerId].offerer, offers[_offerId].ask[i]);\r\n        }\r\n        for(uint i = 0; i < offers[_offerId].offer.length; i++) {\r\n            ERC721 con = ERC721(offers[_offerId].offerContract[i]); \r\n            require(con.ownerOf(offers[_offerId].offer[i]) == offers[_offerId].offerer, \"User attempting to accept offer that offerer cannot fulfill\");\r\n            require(con.isApprovedForAll(offers[_offerId].offerer, address(this)), \"Original offerer no longer has transfer enabled for this NFT contract\");\r\n            con.safeTransferFrom(offers[_offerId].offerer, msg.sender, offers[_offerId].offer[i]);\r\n        }\r\n\r\n        if(offers[_offerId].offerVal > 0) {\r\n            offers[_offerId].asker.transfer(offers[_offerId].offerVal);\r\n        }\r\n\r\n        if(offers[_offerId].askVal > 0) {\r\n            offers[_offerId].offerer.transfer(msg.value);\r\n        }\r\n\r\n        emit LogOfferAccepted(_offerId);\r\n    }\r\n\r\n    function cancelOffer(uint _offerId) public returns (bool) {\r\n        require(offers[_offerId].offerer == msg.sender || offers[_offerId].asker == msg.sender, \"Only the offerer can cancel an offer\");\r\n        require(offers[_offerId].state == State.Active, \"This offer is already closed\");\r\n        offers[_offerId].state = State.Closed;\r\n        offers[_offerId].offerer.transfer(offers[_offerId].offerVal);\r\n    }\r\n\r\n    function getOfferFromOffer(uint _offerId, uint _index) public view returns (uint) {\r\n        TradeOffer memory off = offers[_offerId];\r\n        return off.offer[_index];\r\n    }\r\n\r\n    function getOfferFromAsk(uint _offerId, uint _index) public view returns (uint) {\r\n        TradeOffer memory off = offers[_offerId];\r\n        return off.ask[_index];\r\n    }\r\n\r\n    function getOfferLengthFromOffer(uint _offerId) public view returns (uint) {\r\n        TradeOffer memory off = offers[_offerId];\r\n        return off.offerLength;\r\n    }\r\n\r\n    function getOfferLengthFromAsk(uint _offerId) public view returns (uint) {\r\n        TradeOffer memory off = offers[_offerId];\r\n        return off.askLength;\r\n    }\r\n\r\n    function getOfferState(uint _offerId) public view returns (bool) {\r\n        TradeOffer memory off = offers[_offerId];\r\n        if (off.state == State.Active) {\r\n            return true;\r\n        } else {\r\n            return false;\r\n        }\r\n    }\r\n\r\n    function getOfferAskVal(uint _offerId) public view returns (uint) {\r\n        TradeOffer memory off = offers[_offerId];\r\n        return off.askVal;\r\n    }\r\n\r\n     function getOfferOffVal(uint _offerId) public view returns (uint) {\r\n        TradeOffer memory off = offers[_offerId];\r\n        return off.offerVal;\r\n    }\r\n\r\n}",
  "sourcePath": "C:/Users/rober/Code/Consensys/barter/contracts/Swap.sol",
  "compiler": {
    "name": "solc",
    "version": "0.6.2+commit.bacdbe57.Emscripten.clang"
  },
  "schemaVersion": "3.2.5",
  "updatedAt": "2020-11-17T23:03:14.592Z",
  "networkType": "ethereum",
  "devdoc": {
    "methods": {}
  },
  "userdoc": {
    "methods": {}
  }
}